:020000040800F2
:10000000400C002075020008C92D00089D2300083F
:10001000C52D0008D1080008753600080000000052
:10002000000000000000000000000000D12D0008CA
:10003000D508000800000000CD2D0008D52D0008CF
:100040008F0200088F0200088F0200088F0200084C
:100050008F0200088F0200088F0200088F0200083C
:100060008F0200088F0200088F0200088F0200082C
:100070008F0200088F0200088F0200088F0200081C
:100080008F0200088F0200088F0200088F0200080C
:100090008F0200088F0200088F0200088F020008FC
:1000A0008F0200088F0200088F0200088F020008EC
:1000B0008F0200088F0200088F0200088F020008DC
:1000C0008F0200088F0200088F0200088F020008CC
:1000D0008F0200088F0200088F0200088F020008BC
:1000E000D90800088F0200088F0200088F0200085C
:1000F0008F0200088F0200088F0200088F0200089C
:100100008F0200088F0200088F0200088F0200088B
:100110008F0200088F0200088F0200088F0200087B
:100120008F0200088F0200088F0200088F0200086B
:100130008F02000800000000000000008F0200088D
:100140008F0200088F0200088F0200088F0200084B
:100150008F0200088F0200088F0200088F0200083B
:100160008F0200088F0200088F0200088F0200082B
:100170008F0200088F0200088F02000800000000B4
:10018000000000008F0200080000000000000000D6
:100190008F02000800000000000000008F0200082D
:1001A0000000000000000000000000008F020008B6
:1001B0008F0200088F0200088F0200088F020008DB
:1001C0008F02000800F002F800F045F80AA090E85D
:1001D000000C82448344AAF10107DA4501D100F002
:1001E0003AF8AFF2090EBAE80F0013F0010F18BF8A
:1001F000FB1A43F001031847BC3A0000DC3A000048
:10020000103A24BF78C878C1FAD8520724BF30C842
:1002100030C144BF04680C60704700000023002414
:1002200000250026103A28BF78C1FBD8520728BF06
:1002300030C148BF0B607047642900F02B8100205B
:1002400070471FB503F0F9FC9DE8030000F0C4F906
:100250001FBD10B510BD00F0B9FA1146FFF7F1FF50
:1002600003F040FA00F0D7FA03B4FFF7F2FF03BC43
:1002700000F008FB0948804709480047FEE7FEE711
:10028000FEE7FEE7FEE7FEE7FEE7FEE7FEE7FEE746
:1002900004480549054A064B704700008D2E0008AA
:1002A000C501000840060020400C00204008002046
:1002B0004008002070B5064600F072F9056806F1A6
:1002C0000B0020F00704B4429CBF002070BD2B46F9
:1002D0006A68BAB11068A04210D304F108018842DC
:1002E0003CBF5068586007D35168101941601168CD
:1002F000091B016058601460101D70BD13465268E0
:10030000002AE7D12146284600F052F90028DED124
:1003100070BD53EA020C00F069802DE9F04B4FF0FC
:100320000006002B1FBFB3FA83F503FA05F424FA85
:1003300005F65E4012BF1643B2FA82F502FA05F4E2
:10034000C5F120051EBF22FA05FC44EA0C04203545
:1003500056EA044C4FEA144418BF641C4FF00008DE
:100360004FF00009904271EB030C39D3002919BFFB
:10037000B1FA81F701FA07F6B0FA80F700FA07F64A
:10038000C7F120071EBF20FA07FC46EA0C062037FB
:10039000B6FBF4FCA7EB0507103F07F01F0BCBF1F2
:1003A00020062CFA06F60CFA0BFB44BFB3460026D7
:1003B000202FA4BF5E464FF0000B5BEA060C08BF7F
:1003C0004FF0010B19EB0B0948EB0608ABFB027C65
:1003D00006FB02CC0BFB03CCC01B71EB0C01C1E78D
:1003E0000B46024641464846BDE8F08B13B508432C
:1003F00018BF4FF0FF300146AFF30080BDE81C404E
:10040000704700000FB41CB5074B06AA7B44694631
:100410000090059800F09BF90020694600F0AAF9C9
:100420001CBC5DF814FB0000650300002DE9F041E1
:100430000E460446002020622046E168884730B31B
:10044000252805D0D4E901219047206A401CF2E715
:10045000E168204600278847050018D0A5F1410033
:10046000192802D820354FF4006732462946204625
:100470002760FFF7E1FE40B1012804D0F61D26F009
:1004800007060836D8E7361DD6E72846DAE7206A99
:10049000BDE8F0812DE9F041064600241068752979
:1004A000314616A510D0AFF30080002802DA404292
:1004B00013A507E031688A0701D512A502E04907B4
:1004C00004D511A5012401E0AFF3008000210A2228
:1004D00006F1240709E0B0FBF2FCB0FBF2F302FBEB
:1004E0001C00303078541846491C0028F3D12346AC
:1004F0002A463046BDE8F04100F0CBB800000000CD
:100500002D0000002B0000002000000010B5431C4F
:1005100002E010F8011B71B18107FAD14FF00132EE
:1005200002C88C1A8C4314EAC211F9D0C01A0A0608
:1005300003D0C01E10BDC01A10BD0A0401D0801E19
:1005400010BD0902FCD0401E10BD4FF0000200B5E6
:10055000134694469646203922BFA0E80C50A0E8E6
:100560000C50B1F12001BFF4F7AF090728BFA0E894
:100570000C5048BF0CC05DF804EB890028BF40F860
:10058000042B08BF704748BF20F8022B11F0804FA2
:1005900018BF00F8012B7047704770477047000084
:1005A0000048704718000020704770477047704738
:1005B00038B504460A4600206946AFF3008000289B
:1005C00008BF38BD02460099204600F0DDF8012042
:1005D00038BD012000F0F2B8F8B5AFF30080054651
:1005E00000200C46102000BF0646A819A0420DD9D5
:1005F000324669460020AFF30080070008BF00F0D4
:10060000DDF80098A04218BF0546C419FFF7C8FFDF
:1006100005600746F01D20F007004619284600F047
:100620000AF8B44208BFF8BDA21B31463868BDE8DD
:10063000F84000F0A9B800210160C0E9011070473E
:100640001020704770B50446051FFFF7A9FF00682A
:10065000002C14BF446870BD002C18BFAC423CBFD6
:1006600020466468F8D301680A18AA4218BF45609A
:1006700003D12A6805461144016028684119A14246
:100680001CBF6C6070BD61686960216808442860A7
:1006900070BD2DE9F0470D4699469246044600F19B
:1006A00024080168880604D5E06921F01001216062
:1006B00000E00120A84201DD471B00E00027A169FE
:1006C0007A1902EB0900081AA0612078C00602D44A
:1006D0002046AFF30080002608E0D4E901211AF893
:1006E00006009047206A401C761C20624E45F4DBD1
:1006F0002078C0060AD52046AFF3008006E0D4E992
:10070000012130209047206A401C2062381EA7F14A
:100710000107F4DC07E0D4E9012118F8050090474F
:10072000206A401C2062281EA5F10105F3DC20464A
:10073000AFF300802078000602D50220BDE8F087E4
:100740000120FBE701694A1C02610878704700B587
:100750008FB0CDE901310021059105497944CDE9FA
:10076000031011466846FFF761FE0FB000BD0000A0
:10077000E5FFFFFF0A6802F8010B0A6070470000FE
:100780000048704710000020034640688C4600284F
:1007900018BF88423CBF03464068F8D31868184425
:1007A000884207D00CF1030020F00700001D411A19
:1007B000521A0146081D0A60FFF744BF10B500F049
:1007C00039F8BDE8104000F02FB870477546FFF7C4
:1007D000D7FFAE4605006946534620F00700854620
:1007E00018B020B5FFF754FDBDE820404FF00006DB
:1007F0004FF000074FF000084FF0000BAC46ACE89C
:10080000C009ACE8C009ACE8C009ACE8C00921F0F7
:1008100007018D46704710B50446AFF300802046AF
:10082000BDE81040FFF720BD002801D000F02AB835
:100830007047000010B5012805D0002103A000F08A
:1008400027F8012010BD09A1F8E7000053494752DD
:10085000544D454D3A204F7574206F662068656190
:1008600070206D656D6F7279000000003A20486558
:100870006170206D656D6F727920636F7272757033
:100880007465640001491820ABBEFEE72600020033
:1008900070B505460C460A2000E06D1C00F011F80A
:1008A00035B128780028F8D102E0641C00F009F87E
:1008B00014B120780028F8D1BDE870400A20AFF3C9
:1008C000008008B569468DF800000320ABBE08BD66
:1008D000FEE7000070470000EFF3108072B643F6A9
:1008E0001440C4F201000068800405D540F2700095
:1008F000C2F20000012101704FF4005062B600F016
:100900001DB80000EFF3108072B600BFFEE70000D4
:10091000B0B5044600F00AF9054640F20000C2F204
:1009200000000078611C18BF044400BF00F0FEF80E
:10093000401BA042FAD3B0BD7047000043F61441FB
:10094000C4F201010A68024214BF08607047FFF751
:10095000F3BF00002DE9F04F82B000F13E4241F6B6
:10096000000502F1FF77C4F2020507224FEAB7261D
:10097000A84208BF0622062E38BF4FEAB7224FF022
:10098000010A002400274FF00008009208E000BF91
:10099000023708F10108202F04F1040400F0B480AC
:1009A0000E680AFA08F916EA090FF1D0D1F804A086
:1009B0000AF0030BABF10106012E17D8032286685B
:1009C00002FA07FECA6826EA0E06BA40324382607F
:1009D0004268CAF3001522EA090205FA08F54FEA4F
:1009E000480C6FEA0E062A4342600BE00322BA402D
:1009F000D643BBF1030FBC4604D1BC464FF0030BFA
:100A000022E000BFC2688D68324005FA0CF52A4327
:100A1000BBF1020FC26017D16FF0030202EA580265
:100A2000024404F01C030F25D2F820E005FA03FA73
:100A30000D692EEA0A0E05FA03F343EA0E03136268
:100A4000D1F804A00AF0030B02680BFA0CF3324051
:100A50001A431AF4403F4FF0010A026098D0002276
:100A600043F644030192C4F202031A6843F6004EAF
:100A700042F480421A601A68C4F2010E02F4804205
:100A80000192019A28F003024FF6084C7244CFF607
:100A9000FF7C52F80C3004F00C060F25B540AB4338
:100AA000009D05FA06F6334342F80C30DEF80820C4
:100AB0004B6842EA090643F60C4CDD0258BF22EAB5
:100AC0000906CEF80860C4F2010CDCF800209D0293
:100AD00042EA090658BF22EA0906CCF80060DEF8AF
:100AE00004209D0342EA090658BF22EA0906CEF80F
:100AF0000460DEF80020DB0342EA090658BF22EA60
:100B00000906CEF8006043E702B0BDE8F08F0000B0
:100B1000426902EA0103914341EA0341816170475E
:100B2000002A08BF090481617047000040F2386064
:100B3000C2F200000068704770B5B8B3044690F880
:100B40003D0028B9002084F83C00204600F056FB08
:100B5000242084F83D002068016821F00101016033
:100B6000016841F400410160016821F40041016025
:100B700001F006F848F28041C0F21E0140F6001371
:100B8000D4F804E088424FF00001C0F23D0348F27F
:100B9000A16C4FF0000238BF01219842C0F2010C55
:100BA00038BF0122E64538BF0A460AB1012070BDB0
:100BB0004DF68361C4F21B31A0FB01122168950C34
:100BC0004B684FF4967623F03F0343EA9243754314
:100BD00044F6D3564B60C1F262060B6AA5FB06567B
:100BE000B50923F03F03E64538BF950C6A1C1A434C
:100BF0000A62CA6948F2A0664CF6FF73C0F20106A9
:100C0000B64522EA03020BD801384FEA4E03B0FB87
:100C1000F3F001306FF31F30042898BF04201EE06A
:100C2000A368013863B119230EFB03F3B0FBF3F0A3
:100C300001306FF31F3078B100F5804008E000BF4D
:100C40000EEB4E03B0FBF3F001306FF31F3028B111
:100C500000F5004003E000BF012000E00120104348
:100C6000C8610868D4E9072320F0C0001043184386
:100C70000860886848F2FF3204F10C0690434CCEBD
:100C800018431043A5698860C86820F0FF0030430E
:100C90002843C860086840F0010008600020202157
:100CA000206484F83D10206384F83E0070BD00008D
:100CB0002DE9F04784B0984617460E460446FFF7E4
:100CC00035FF94F83D10202923D10546206881691D
:100CD000890719D5FFF72AFF401B1928F6D90020EC
:100CE0002021206384F83D1084F83E00206C04F13C
:100CF0003C0940F0200020640220002189F8001007
:100D000004B0BDE8F08700BFA14619F83C1F0129D7
:100D100004D1022004B0BDE8F08700BF012289F8A9
:100D200000200368DDE90D1A0C9ADB0703D1036884
:100D300043F001030360036823F40063036022208F
:100D400084F83D00402084F83E0000202064626268
:100D50006185608D314620850020CFF6FF70E0620E
:100D600020463A464346CDF800A0019501F018FB15
:100D700020B1012004B0BDE8F08700BF208DA8B1EC
:100D800002282BD0012835D121680A6822F480621C
:100D90000A60002203924A6903928A690392039AC5
:100DA0000A6842F400720A602CE000BF0020039041
:100DB000206841690391816903910399016841F4B5
:100DC00000710160202084F83D00002084F83E007E
:100DD000002189F8001004B0BDE8F08721680A6896
:100DE00022F480620A600A6842F400620A6000220B
:100DF000039202E00021039121684A690392896904
:100E0000039103990AF1010680B2032818D8022839
:100E100042D0012856D1BAF1000F00F0AB80206813
:100E2000014651F8142F520600F1A8800868C00648
:100E300000F1E280FFF77AFE401B5045EFD9D0E089
:100E4000BAF1000F10D000BF2068014651F8142FEE
:100E500052060ED40868C00600F1CE80FFF766FE89
:100E6000401B5045F0D9BCE020684169490640F17B
:100E7000B1800069616A0870606A2268411C208D37
:100E8000616201382085638D013B638553695B078F
:100E900040F18080106973E020684169490747D4B8
:100EA000002E59D0BAF1000F00F09980FFF73EFEF6
:100EB000401B504500F29580206841694907F5D5EF
:100EC00036E000BF2068416949070FD4002E65D085
:100ED000BAF1000F00F08380FFF728FE401B504559
:100EE00000F27F80206841694907F5D5016821F447
:100EF000806101600069616A0870606A218D01305B
:100F00000139606221852068618D013961854169FF
:100F100049070DD4002E4FD0BAF1000F5FD0FFF774
:100F200005FE401B50455CD8206841694907F6D54D
:100F3000016841F4007101600069616A0870606ACB
:100F40002268411C6162218D01392185618D013941
:100F500061851169417014E041694907E8D441692C
:100F600049075CBF41695FEA4171E1D441694907C2
:100F7000F2D5DDE72068416949062BD50069616A31
:100F80000870606A218D01306062481E2085618D85
:100F90000139618501047FF437AF13E741694907DF
:100FA000A4D4416949075CBF41695FEA41719DD49E
:100FB00041694907F2D599E741694907B8D44169C0
:100FC00049075CBF41695FEA4171B1D44169490792
:100FD000F2D5ADE750F8141FC90601460CD4FFF74F
:100FE000A5FD00202021206384F83D1084F83E00F8
:100FF000206C40F020000AE06FF010000860002034
:101000002021206384F83D1084F83E00206C206489
:101010000120002189F8001004B0BDE8F08700002D
:101020002DE9F04383B0994616460F460446FFF774
:101030007DFD94F83D1020291CD10546206881696A
:10104000890713D5FFF772FD401B1928F6D9002038
:101050002021206384F83D1084F83E00216C41F08B
:101060002001216484F83C0004E000BF94F83C10A7
:10107000012903D1022003B0BDE8F083012284F8E6
:101080003C200368DDE90B180A9ADB0703D10368EB
:1010900043F001030360036823F40063036021202D
:1010A00084F83D00402084F83E0000202064626205
:1010B0006185608D394620850020CFF6FF70E062A3
:1010C000204632464B46CDF80080019501F0F8FAF3
:1010D00020B1012003B0BDE8F08300BF208D0028BF
:1010E00050D0206808F10106014651F8142F12066D
:1010F0002CD49EB1B8F1000F5AD000BF086840054B
:101100005ED4FFF713FD401B404556D820680146CA
:1011100051F8142F1206F1D518E000BF0A685205E5
:101120004ED40A68120611D40A68520548D40A68D7
:1011300012060BD40A68520542D40A68120605D476
:101140000A6852053CD40A681206E7D5626A11465D
:1011500011F8013B0361238D6162591E2185678D62
:10116000013F678547697F070AD50F0408D051788A
:101170000161911C6162991E2185628D013A62852F
:101180000904B1D1204641462A4601F0D3FB38BBC1
:101190002068016841F400710160202084F83D005E
:1011A000002084F83E0084F83C0003B0BDE8F083E2
:1011B0000868400504D4FFF7B9FC202004E000BF14
:1011C0006FF480600860042000212022216384F8ED
:1011D0003D2084F83E10226C1043206484F83C10BB
:1011E000206C04287FF475AF2068016841F4007119
:1011F0000160012003B0BDE8F0830000B0B586B007
:10120000016845F20040C4F20000814202D006B0FD
:10121000B0BD00BF002443F630050194C4F20205BE
:10122000296800F5D83041F002012960296801F0F1
:101230000201019101994FF4107101911221CDE940
:101240000214032104910421059101A9FFF782FBF7
:101250000094286940F400102861286900F4001007
:101260000090009806B0B0BD40F2000040F2386136
:10127000C2F20000C2F2000100780A68104408605F
:101280007047000080B543F60040C4F202000168D8
:1012900041F400710160016841F4806101600168FE
:1012A00041F480710160032000F084F8002000F018
:1012B00005F800F027F8002080BD000070B540F26E
:1012C0000006C2F2000640F208013278C2F20001C4
:1012D0004FF47A730968B3FBF2F20446B1FBF2F102
:1012E000084600F09FFE0F2C4FF0010508D838B9D2
:1012F0004FF0FF3021460022002500F02FF87460E7
:10130000284670BD82B0002043F640010190C4F22F
:1013100002014A6842F480424A604A6802F480420C
:101320000192019A0090086840F0805008600868B7
:1013300000F080500090009802B07047002848BF2D
:10134000704700F01F01012202FA01F14EF2001273
:101350004009CEF2000242F82010704710B54EF658
:101360000C5CCEF2000CDCF80030C3F3022E8EF0E1
:101370000704042C28BF0424BEF103034FF0FF3EF2
:101380000EFA04F438BF0023A14399400EFA03F388
:101390009A43114300F00F02043A624409010C32EF
:1013A00000F16043B0F1FF3FC8BF03F56442117024
:1013B00010BD00004EF60C51CEF200010A684FF647
:1013C000FF031A4060F30A2242F0806040F0FD7093
:1013D0000860704701220168C0F80025002280F8EB
:1013E000F424886940F000608861486D40F08050C6
:1013F00040F0030200204A65704700002DE9F04FDD
:101400008BB0002800F086800446056890F8BD0483
:1014100028B9002084F8BC04204600F093F803208B
:1014200084F8BD04E86BC0055CBF00202061206823
:1014300002F0E6F8206804F11C0A0A90D4E90C5086
:1014400004F1040E9AE8C0079EE80E58CDE9085052
:1014500003A880E8C0030A988DE80058CDF81CA0C6
:1014600001F090FD002852D120680021002502F0F3
:10147000CFF8616861B301200023002203EBC303AE
:1014800004EB830787F83C20D3B20132A7F844303D
:10149000D3B2994287F83D0087F84050C7E912550A
:1014A0007D65EBD800200023002200BF03EBC303BF
:1014B00004EB830787F87C220132D3B2994287F884
:1014C0007D0287F88002C7E9A200C7F89402EDD830
:1014D000A06822680A90D4E90C5004F1140E04F1BB
:1014E000240AD4E903379EE840589AE80007CDE97A
:1014F000085002A880E8005810460A9ACDE9007604
:10150000CDE90589CDF81CA001F03CFE30B10220E8
:1015100084F8BD0401200BB0BDE8F08F002084F8F2
:101520003800012084F8BD04606A012802D12046F9
:10153000FFF750FF206801F015FE00200BB0BDE85A
:10154000F08F0000F0B59DB0044601A8043058218A
:10155000FEF7FBFF2068B0F1A04F01D01DB0F0BD39
:101560004FF48070019001A800F03EF8002818BFE9
:10157000FFF7C8F9002743F630061897C4F20206B1
:101580003068002440F0010030603068C4F202048A
:1015900000F00100189018984FF4E85018900220BD
:1015A000CDE9190703201B900A2018AD1C90204696
:1015B0002946FFF7CFF94FF40070CDE91807204610
:1015C00029461A97FFF7C6F9706840F080007060EE
:1015D0000097706940F480407061706900F4804049
:1015E000009000981DB0F0BD2DE9F04381B0044695
:1015F000006843F68C06C107C4F2020604D14FF01E
:10160000000981070CD415E03168A26B21F0C0619C
:1016100011433160B2FA82F14FEA5119810709D5BD
:101620003168E26B21F0C05111433160002A08BFDC
:101630004FF00109410705D44FF00008010712D40B
:1016400020E000BF3168226B21F44011114331606A
:10165000B2FA82F14FEA5118B2F5801F08BF4FF07D
:10166000010901070ED53168626B21F44001114375
:10167000B2F5800F316008BF4FF00109002A08BFA2
:101680004FF0010881065AD50020009056F84C0C06
:1016900047F2000740F0805046F84C0C56F84C0CCE
:1016A000C4F2000700F0805000900098386840F4C1
:1016B00080703860FFF73AFA054600BF3868C00509
:1016C00006D4FFF733FA401B0228F7D93CE100BFEC
:1016D00056F81C0C10F4407017D0216C01F44071C6
:1016E000884212D056F81C0C40F64061C4F24721E3
:1016F000012220F440700A6000220A6046F81C0CA7
:1017000056F81C0CC00740F075812068216C56F813
:10171000842C4FF6FF4701F4407322F4F812C0F610
:10172000FF770F40B3F5407F08BF3A4346F8842C5B
:1017300056F81C2C6FF31F31114346F81C1CC106D0
:101740000AD4010613D4410619D4C1051FD481055A
:101750002AD4410530D438E094F8580040F640616E
:10176000C4F24721C1F8A00320680106EBD5B16897
:10177000E26C21F440011143B1604106E5D5B16846
:10178000A26C21F080611143B160C105DFD5B16861
:10179000626D21F000611143B160B2F1006F08BFCA
:1017A0004FF001088105D4D5B168626C21F08051F9
:1017B0001143B160410508D5B168226D21F0005197
:1017C0001143B2F1005FB1601ED0B9F1000F1BD11F
:1017D000B0F5006F18D0B8F1000F4FF0000000F026
:1017E0001B816827C4F24727B860FFF79FF90546B9
:1017F00056F88C0C800040F1AB80FFF797F9401B46
:101800000228F5D9A0E000BF40F26809C4F24729D8
:101810000020C9F80000FFF789F9054656F88C0C3E
:10182000000105D5FFF782F9401B0228F6D98BE0AD
:101830002068C10701D0A16B19B1810714D5E16BF4
:1018400091B956F8081C56F8082CD4E9013501F472
:10185000403102F0706219436769114341EA851112
:1018600041EA077146F8081C410703D5216BB1F521
:10187000801F05D001071FD5616BB1F5800F1BD10B
:1018800056F8081C56F8082CD4E9013701F4403109
:1018900002F0E04219432569114341EA871141EA08
:1018A0000561D4F828C046F8081C3168ACF1010283
:1018B00021F01F0111433160410520D5216DB1F1A7
:1018C000005F1CD156F808CC56F8082CE5680021BA
:1018D000CFF6FF71D4E9013701EBC5314FF0C06598
:1018E00002F0E04205EA4C2505F100751A432A434F
:1018F0006FF30F0142EA8712114346F8081C0005F6
:1019000011D5271D8FCF40EA81100021CFF6FF713E
:1019100001EBC2316FF30F0140EA0360084340EA74
:10192000077046F8080C0120C9F80000FFF7FEF820
:10193000054600BF56F88C0C00013FF54CAFFFF791
:10194000F5F8401B0228F5D9032001B0BDE8F0836B
:101950002068410701D5216B19B101071AD5616BC8
:10196000C1B956F8041CD4E9062301F44031656A74
:10197000114341EA831141EA0561D4F82CC046F8CD
:10198000041C31686FF0FF0221F4F85102EB0C22C5
:1019900011433160C00517D5606DB0F1006F13D1F0
:1019A00056F8040C04F118030ECB002500F070600B
:1019B000CFF6FF7505EBC33308436FF30F0340EA1F
:1019C0008210184346F8040C0120B860FFF7AEF807
:1019D000044600BF56F88C0C800007D4FFF7A6F829
:1019E000001B0328F6D3032016E000BF002001B03F
:1019F000BDE8F083FFF79AF8054641F2883700BF4B
:101A000056F81C0C80073FF580AEFFF78FF8401B9F
:101A1000B8424FF00300F3D901B0BDE8F0830000F5
:101A20002DE9F041002800F08B8043F60808C4F24D
:101A300002080446D8F8F8030D4600F00F0088426B
:101A400007D288F8F853D8F8F80300F00F00A8423E
:101A500076D12068810717D5410705D5D8F8001041
:101A600041F4E051C8F80010010705D5D8F800107E
:101A700041F46041C8F80010D8F80010A26821F0C5
:101A8000F0011143C8F80010C0073FD1D8F8F8039F
:101A900000F00F00A84207D988F8F853D8F8F803E7
:101AA00000F00F00A8424BD12068410707D5D8F8B5
:101AB0000010E26821F4E0511143C8F8001000075B
:101AC00008D5D8F80000216920F4604040EAC10040
:101AD000C8F8000000F07CF8D8F8001043F6544233
:101AE000C1F30311C0F60002515C40F2080220FA73
:101AF00001F140F20400C2F200000068C2F20002EC
:101B00001160FFF7DBFB0020BDE8F0816068811EFB
:101B1000022907D258F8081C89015CBF0120BDE8E2
:101B2000F08111E0012807D158F8081C89035CBF37
:101B30000120BDE8F08107E058F8081C890703D4AC
:101B40000120BDE8F08100BFD8F8001021F00301AA
:101B50000843C8F80000FEF7E9FF064641F288375F
:101B6000D8F80000616800F00C00B0EB810F8DD058
:101B7000FEF7DCFF801BB842F2D90320BDE8F081FC
:101B800040F2080043F60801C2F20000C4F202016C
:101B90000068096843F66442C1F38221C0F600027E
:101BA000515CC8407047000040F2080043F608014D
:101BB000C2F20000C4F202010068096843F6644200
:101BC000C1F34231C0F60002515CC84070470000CA
:101BD00010B543F60404C4F202046068C0F3810146
:101BE00042F20040C0F2F400DFE801F044020818BD
:101BF00041F20020C0F27A0010BD00BF216801F060
:101C00003F02216823684902C3F3881116D4A1FB5F
:101C100000010023FEF77DFB17E000BF216801F003
:101C20003F02216823684902C3F3881116D4A1FB3F
:101C300000010023FEF76DFB17E000BF41F200201A
:101C4000C0F27A004843B0FBF2F021680222C1F3EF
:101C5000014102EB4101B0FBF1F010BD41F2002067
:101C6000C0F27A004843B0FBF2F02168C1F3027180
:101C7000B0FBF1F010BD00002DE9F04182B000286A
:101C800000F096800446007843F60006C007C4F2D0
:101C900002062BD0B06800F00C00042820D0B068F9
:101CA00000F00C00082802D17068400218D4B06817
:101CB00000F00C000C2802D17068400210D460685B
:101CC000B0F5803F07D0B0F5A02F40F03B813068E1
:101CD00040F480203060306840F4803030603BE178
:101CE0003068800302D56068002861D020788007C2
:101CF00022D5B06810F00C0F11D0B06800F00C00C5
:101D0000082802D17068400209D5B06800F00C00C4
:101D10000C2840F09F807068400200F19B80306882
:101D2000800702D5E068012842D13068216920F09F
:101D3000F80040EAC1003060207800073CD42078E9
:101D4000400751D4A5698DB3B06800F00C00082895
:101D500040F0A880012D2BD07068E16900F480026A
:101D60008A4225D1216A00F03F028A4220D147F6FB
:101D7000C071626A0140B1EB821F19D1A26A0023CF
:101D8000CFF6FF7303EBC23200F440316FF30F0262
:101D900091420DD1E16A00F07062B2EB016F07D1A0
:101DA000216B00F0E040B0EB017F01D1002035E174
:101DB000012002B0BDE8F0816069002840F2000017
:101DC000C4F247205ED00121C0F8801EFEF7AEFEAF
:101DD000054600BF706F8007B1D4FEF7A7FE401B19
:101DE0000228F7D9C5E000BF306C10F080580AD146
:101DF00000200190306C40F080503064306C00F076
:101E000080500190019847F20007C4F2000738683B
:101E1000C00511D4386840F480703860FEF786FE43
:101E2000054600BF3868C00506D4FEF77FFE401B9C
:101E30000228F7D99DE000BFA068012805D0052839
:101E400052D1306F40F004003067306F40F0010035
:101E5000306753E0E068002860D00020C4F24720DB
:101E600001210160FEF762FE054600BF3068800771
:101E70003FF55BAFFEF75AFE401B02284FF0030010
:101E8000F4D9CBE00021C0F8801EFEF74FFE0546D6
:101E9000706F80077FF553AFFEF748FE401B0228A6
:101EA000F6D966E00027C4F2472700203866FEF71F
:101EB0003DFE022D05460BD1306880015ED5FEF750
:101EC00035FE401B02284FF00300F5D9A6E000BF05
:101ED000306880017FF56AAFFEF728FE401B0228BC
:101EE0004FF00300F4D999E0316F002821F001018F
:101EF0003167316F21F00401316765D0FEF716FEBE
:101F0000054641F2883700BF306F80076ED4FEF778
:101F10000DFE401BB842F7D92BE000BF0020C4F2F1
:101F2000472000210160FEF701FE0546306880076A
:101F30007FF502AFFEF7FAFD401B02284FF00300C9
:101F4000F4D96BE03168002821F4803131603168C8
:101F500021F48021316053D0FEF7E8FD054600BF33
:101F6000306880033FF5C2AEFEF7E0FD401B6428F9
:101F7000F6D9032002B0BDE8F08100BF04F11C05D2
:101F80002FCD246B08430021CFF6FF7140EA821069
:101F900001EBC3316FF30F0140EA0560084340EAEB
:101FA0000470706001203866FEF7C0FD044600BF73
:101FB000306880013FF5FAAEFEF7B8FD001B02283D
:101FC0004FF00300F4D929E0FEF7B0FD054641F2D9
:101FD000883700BF306F800708D5FEF7A7FD401B8C
:101FE000B8424FF00300F5D918E000BFB8F1000F78
:101FF0007FF4A8AE306C20F080503064A2E600BFC1
:10200000FEF794FD0546306880037FF56FAEFEF75E
:102010008DFD401B64284FF00300F4D902B0BDE8E9
:10202000F0810000411E0020B0EB116F1CBF0120A9
:1020300070474EF21002CEF2000251604EF623516C
:10204000CEF20001F0230B70072190601160704701
:10205000002804BF0120704710B5044690F83D00E9
:1020600028B9002084F83C00204600F021F8242004
:1020700084F83D002068C16821F40051C160204609
:1020800000F00EFF2068016921F49041016141696F
:1020900021F02A014161C16841F40051C160002072
:1020A0002021206484F83D1084F83E1010BD00000B
:1020B00080B586B0016844F60000C4F20000814299
:1020C00002D006B080BD00BF002143F6300201916E
:1020D000C4F20202136900F5E23043F48023136175
:1020E000136903F480230193019B0191136843F06A
:1020F00008031360126802F008020192019A4FF47B
:10210000407201920222CDE90221032104910721AC
:10211000059101A9FEF71EFC06B080BD2DE9F04334
:1021200081B0044690F83D0020280DD10F460029CB
:102130004FF0010000F0DD801646002A00F0D98043
:1021400094F83C00012803D1022001B0BDE8F083DF
:10215000012084F83C004FF0000921201D46C4F8FE
:10216000409084F83D00FEF7E1FCA684E684A16877
:102170000646B1F5805F07D1206900281CBF3846AC
:102180004F46B846074601E04FF0000884F83C90FF
:10219000E18C2068002900F08B8005F101090AE03C
:1021A00047B317F8011B4160E18C0139E184E18CF0
:1021B000002900F07D8001680906F1D4B9F1000F13
:1021C0000AD0EDB1FEF7B2FC801BA84218D82068F7
:1021D00001680906F6D5E3E701680906E0D401685D
:1021E00009065CBF01685FEA0161D9D4016809068C
:1021F000F2D5D5E738F8021B00276FF35F21D2E74D
:10220000206850E8030F216820F4D07041E80302F1
:10221000BAB3206850E8030F216820F4D07041E879
:10222000030272B3206850E8030F216820F4D070D5
:1022300041E803022AB3206850E8030F216820F424
:10224000D07041E80302002ADAD11AE0206850E891
:10225000050F216820F0010041E80502DAB120688D
:1022600050E8050F216820F0010041E8050292B115
:10227000206850E8050F216820F0010041E80502C0
:102280004AB1206850E8050F216820F0010041E8BC
:102290000502002ADAD1202084F83D0084F83E00AF
:1022A000002084F83C00032001B0BDE8F08300BFAB
:1022B0000168490619D4FDB1691C0DD101684906B0
:1022C00013D4016849065CBF01685FEA41610CD420
:1022D00001684906F2D508E0FEF728FC801BA842F9
:1022E0000AD8206800684006F6D5202084F83D0012
:1022F000002001B0BDE8F083206850E8030F21689A
:1023000020F4D07041E80302E2B3206850E8030FE4
:10231000216820F4D07041E803029AB3206850E8A5
:10232000030F216820F4D07041E8030252B3206803
:1023300050E8030F216820F4D07041E80302002A1E
:10234000DAD11FE0206850E8050F216820F0010075
:1023500041E80502002A9ED0206850E8050F216858
:1023600020F0010041E80502002A3FF494AF206804
:1023700050E8050F216820F0010041E80502002A1D
:102380003FF489AF206850E8050F216820F0010074
:1023900041E80502002AD5D17DE70000FEE70000F4
:1023A0002DE9F04383B004460068994603689046DF
:1023B00043F48062026002680B9D42F48072026006
:1023C00042690A9ED2070F461DD1711C11D0002E02
:1023D00000F03681FEF7AAFB401BB04200F23281CA
:1023E00020684169C907F5D00DE000BF4169C90700
:1023F00009D14169C90706D14169C90704BF4169CB
:102400005FEAC171F2D007F0FE07076141698907F1
:1024100038D44169721C01F4806111D049BB002E8F
:1024200000F03A81FEF782FB401BB04200F2368199
:1024300020684169890725D441694905F2D518E02A
:10244000B9B9416989071DD44169490511D4416968
:10245000890717D4416949050BD44169890711D40B
:102460004169490505D4416989070BD4416949058A
:10247000E7D5016841F4007101606FF4806141614A
:1024800004200CE100210291014651F8142F029220
:102490004A680292029A0A68120620D4002E00F0BE
:1024A000AB80721C51D10A68520500F1AD800A68F8
:1024B000120614D40A68520500F1A6800A681206B2
:1024C0000DD40A68520500F19F800A68120606D4EE
:1024D0000A68520500F198800A681206E3D5B9F13E
:1024E000010F45D04FEA18210161014651F8142F20
:1024F00012063DD4002E00F07F80721C2AD10A689B
:10250000520500F181800A68120631D40A6852052A
:102510007AD40A6812062BD40A68520574D40A6861
:10252000120625D40A6852056ED40A681206E6D54A
:102530001EE000BFFEF7FAFA401BB04261D82068E7
:10254000014651F8142F1206C9D408684005F1D588
:102550005AE000BF0868400556D4FEF7E7FA401B72
:10256000B0424ED82068014651F8142F1206F1D51A
:102570005FFA88F10161014651F8142F12061AD44E
:10258000D6B3721C33D10A6852053DD40A681206CC
:1025900011D40A68520537D40A6812060BD40A68A7
:1025A000520531D40A68120605D40A6852052BD4A4
:1025B0000A681206E7D50168002241F480710160C3
:1025C00020464FF001113346009500F007FA00282D
:1025D00050D02068006844E0FEF7A8FA401BB042E3
:1025E0000FD82068014651F8142F1206E3D408686A
:1025F0004005F1D508E000BF0868400504D4FEF7A7
:1026000095FA202004E000BF6FF480600860042089
:1026100000212022216384F83D2084F83E10226CA2
:102620001043206484F83C10206C042843D12068B7
:10263000016841F400710160012003B0BDE8F0833E
:10264000FEF774FA00202021206384F83D1084F8FE
:102650003E00216C41F020012164216884F83C0097
:102660000868C00544BF4FF400702064032003B025
:10267000BDE8F083206847F0010101610221C0F24A
:102680000101204632462B4600F050FA002818BFC0
:10269000012003B0BDE8F083FEF748FA20200021B6
:1026A0002022216384F83D2084F83E10226C1043E0
:1026B000206484F83C10012003B0BDE8F0830000E2
:1026C0002DE9F04381B00446006890460268099DF8
:1026D00042F4807202604269089E9946D2070F4612
:1026E0001DD1711C11D0002E00F0D280FEF71EFA11
:1026F000401BB04200F2CE8020684169C907F5D086
:102700000DE000BF4169C90709D14169C90706D178
:102710004169C90704BF41695FEAC171F2D007F09E
:10272000FE0101614169890738D44169721C01F4D5
:10273000806111D049BB002E00F0E880FEF7F6F969
:10274000401BB04200F2E48020684169890725D42B
:1027500041694905F2D518E0B9B9416989071DD425
:102760004169490511D44169890717D4416949056F
:102770000BD44169890711D44169490505D44169E0
:1027800089070BD441694905E7D5016841F4007117
:1027900001606FF4806141610420BAE00021009182
:1027A000014651F8142F00924A680092009A0A6874
:1027B00012061ED4002E00F08580721C4DD10A68CE
:1027C000520500F187800A68120612D40A68520581
:1027D00000F180800A6812060BD40A68520579D489
:1027E0000A68120605D40A68520573D40A681206EC
:1027F000E5D5B9F1010F43D04FEA18210161014637
:1028000051F8142F12063BD4002E5BD0721C29D134
:102810000A6852055ED40A68120631D40A68520565
:1028200058D40A6812062BD40A68520552D40A6892
:10283000120625D40A6852054CD40A681206E7D558
:102840001EE000BFFEF772F9401BB0423FD820687F
:10285000014651F8142F1206CBD408684005F1D573
:1028600038E000BF0868400534D4FEF75FF9401B2C
:10287000B0422CD82068014651F8142F1206F1D529
:102880005FFA88F10161002001B0BDE8F08300BF6C
:10289000FEF74CF900202021206384F83D1084F8D5
:1028A0003E00216C41F020012164216884F83C0045
:1028B0000868C00544BF4FF400702064032001B0D5
:1028C000BDE8F0830868400504D4FEF72FF9202006
:1028D00004E000BF6FF48060086004200021202223
:1028E000216384F83D2084F83E10226C104320645C
:1028F00084F83C10206C042817D12068016841F44A
:1029000000710160012001B0BDE8F083FEF70EF90F
:10291000202000212022216384F83D2084F83E10ED
:10292000226C1043206484F83C10012001B0BDE803
:10293000F083000070B50368044653F8140F400795
:1029400037D40E46F1B1701C24D100BF1868400581
:1029500032D4186840072CD4186840052CD4186865
:10296000400726D41868400526D41868400720D4AC
:102970001868400520D4186840074FF0000048BF91
:1029800070BDE3E71868400516D4FEF7CFF82020A5
:1029900016E000BF154600BF186840050CD4FEF7CE
:1029A000C5F8401BB042F2D8236853F8140F400713
:1029B000F2D5002070BD00BF6FF480601860042065
:1029C00000212022216384F83D2084F83E10226CEF
:1029D00010432064012084F83C1070BD2DE9F041C3
:1029E00005461446DDF8188001F47F002A681E466B
:1029F000B0F5803F8FB241D150693840C01BB0FA6A
:102A000080F04009A0427BD1701C2DD0002E7BD0DD
:102A1000FEF78CF8A0EB0800B04277D82868406930
:102A20003840C01BB0FA80F04009A042F0D000202E
:102A3000BDE8F08150693840C01BB0FA80F0400911
:102A4000A0425DD150693840C01BB0FA80F0400907
:102A5000A04255D150693840C01BB0FA80F04009FF
:102A6000A0424FF000005FD150693840C01BB0FA5F
:102A700080F04009A042DDD042E000BF90693840BC
:102A8000C01BB0FA80F04009A04239D1701C1FD0A1
:102A9000D6B300BFFEF74AF8A0EB0800B04235D825
:102AA000286880693840C01BB0FA80F04009A04215
:102AB000F0D00020BDE8F08190693840C01BB0FA2A
:102AC00080F04009A0424FF0000018BFBDE8F0813F
:102AD00090693840C01BB0FA80F04009A0420FD185
:102AE00090693840C01BB0FA80F04009A04207D17D
:102AF00090693840C01BB0FA80F04009A042DBD09A
:102B00000020BDE8F08100BFFEF710F80020202172
:102B1000286385F83D1085F83E00296C41F02001BE
:102B2000296485F83C000120BDE8F081F0B581B052
:102B3000044600681D4643698FB203EA0701B942A3
:102B400002D1002001B0F0BD41691646013201F406
:102B500080610FD059BB9EB3FDF7E8FF401BB04228
:102B600030D8206841693940B942EAD04169490505
:102B7000F2D51CE0D9B941693940B942E1D0416987
:102B8000490514D441693940B942DAD0416949054F
:102B90000DD441693940B942D3D04169490506D4C1
:102BA00041693940B942CCD041694905E3D5016852
:102BB00041F4007101606FF480614161042002E022
:102BC000FDF7B4FF202000212022216384F83D205E
:102BD00084F83E10226C1043206484F83C100120DD
:102BE00001B0F0BD2DE9F04786B028200021002279
:102BF0000027FEF7B3FB2820FEF7A0FB43F63000CA
:102C0000CDE904770097C4F20200016841F6000A9A
:102C100041F0040101600168C4F2020A01F00401FC
:102C20000091009900970168AAF5A05541F0800134
:102C300001600168002201F0800100910099009775
:102C4000016844F2810841F002010160016801F06D
:102C50000201009100990097016841F008010160AC
:102C6000016801F00801009100990097016841F0A6
:102C700040010160016801F0400100910099009756
:102C8000016841F001010160006844F2810100F037
:102C90000100009000982846FDF742FF5046402171
:102CA00000224FF04009FDF73BFF4FF40050019028
:102CB0004FF4881001AECDE90207AAF580503146E5
:102CC000FDF748FE012428463146CDF80480CDE9C1
:102CD00002470497FDF73EFE50463146CDE9019488
:102CE000CDE90377FDF736FE8020CDE90107504698
:102CF00031460397FDF72EFE06B0BDE8F0870000D1
:102D000080B540F2940045F20041C2F20000C4F2E6
:102D1000000148F2A06200234FF4804CC0F201028F
:102D200080E80E00C0E9033CC0E90533C0E9073381
:102D3000FDF702FF002808BF80BDEFF3108072B6D8
:102D4000FEE7000080B540F2F45044F60001C2F204
:102D50000000C4F2000100234FF00C0C4FF41642A7
:102D600080E80E00C0E90333C0E905C3C361FFF783
:102D70006FF9002808BF80BDEFF3108072B600BF66
:102D8000FEE7000080B540F2E800C2F200004FF01C
:102D9000A0410622C0E90012022100220123C0E95D
:102DA0000312C0E90613C0E90822C0E90B32FEF79E
:102DB00025FB002808BF80BDEFF3108072B600BF6E
:102DC000FEE70000FEE70000FEE70000704700009D
:102DD00070470000FEF748BAB0B594B0002443F63F
:102DE0004000CDE90B44CDE909440694CDE9044403
:102DF000CDE902440194C4F202000168022541F0C9
:102E000080510160006800F080500190019847F205
:102E100000000194C4F20000016841F440410160E7
:102E2000006800F4404001900198012007904FF4A1
:102E3000A02008904FF480000E9004200F90A8204E
:102E4000CDE910050720CDE9120507A80D95FEF77D
:102E500013FF28B1EFF3108072B600BFFEE700BF8A
:102E60000F20CDE902054FF4A05005904FF480509B
:102E7000069002A805210494FEF7D2FD20B1EFF3DD
:102E8000108072B6FEE700BF14B0B0BD4EF6885099
:102E9000CEF20000016841F470010160704700004B
:102EA00010B504460068D4E902C22369016921F41F
:102EB000405111430161626943EA0C01E369114326
:102EC000C268194349F20C639A431143C1604169D6
:102ED000A26921F4407141F20043114340F4806241
:102EE000C4F201039A42416102D1FEF75DFE01E0A6
:102EF000FEF746FEE16963681922B1F5004FA0FBB9
:102F000002011FD15A00DB0FFDF703FA48F21F51EF
:102F1000C5F2EB11A0FB01235A096FF0630302FB1A
:102F20000300322303EBC000A0FB01014FF4F87053
:102F300000EA111000EB0210C1F3421108442168AD
:102F4000886010BD9A009B0FFDF7E3F948F21F510E
:102F5000C5F2EB11A0FB01235A096FF0630302FBDA
:102F60000300322303EB0010A0FB0101F02000EA74
:102F7000511000EB0210C1F343110844216888602E
:102F800010BD000082B00499DDF808C0012940F6A8
:102F90004051C0F203016FD1826B4FF6BF7322F430
:102FA00080328263C268CFF6BD731A40C260C268C5
:102FB0000B9B22F44012012BC26003D1C26842F481
:102FC0008012C26000220092009A01320092009AA0
:102FD0008A4200F2A9800269002A1ED4009A0132B6
:102FE0000092009A8A4200F29F800269002A14D45B
:102FF000009A01320092009A8A4200F2958002699A
:10300000002A0AD4009A01320092009A8A4200F201
:103010008B800269B2F1FF3FD6DC00220092026988
:1030200042F001020261009A01320092009A8A4243
:103030007AD80269D2071AD0009A01320092009A17
:103040008A4271D80269D20711D0009A01320092E7
:10305000009A8A4268D80269D20708D0009A0132E1
:103060000092009A8A425FD80269D207DBD1002120
:10307000BCF1010F72D169E0C268089B42F04002C6
:10308000C26000220192019A01320192019A8A42A1
:1030900050D80269002A1BD4019A01320192019A88
:1030A0008A4247D80269002A12D4019A0132019259
:1030B000019A8A423ED80269002A09D4019A013253
:1030C0000192019A8A4235D80269B2F1FF3FDADCF7
:1030D00000220192026942F001020261019A01326A
:1030E0000192019A8A4225D80269D2071AD0019A20
:1030F00001320192019A8A421CD80269D20711D08A
:10310000019A01320192019A8A4213D80269D207C8
:1031100008D0019A01320192019A8A420AD80269C2
:10312000D207DBD1002106E00321BCF1010F15D14C
:103130000CE000BF0321826B002B14BF22F480320D
:1031400042F480328263BCF1010F07D1826842F001
:1031500006028260826842F020028260084602B065
:10316000704700000146D0F8000E20F00300C1F8BF
:10317000000ED1F8040840F002020020C1F8042833
:10318000704700002DE9F04F83B0DDF84CE00E9F52
:103190000022BEF1000FC0F80421C0F80821C0F8D9
:1031A0000C21C0F81021C0F81421C0F81821C0F873
:1031B0001C21C0F82021C0F82421C0F82821C0F823
:1031C0002C21C0F83021C0F83421C0F83821C0F8D3
:1031D0003C2107D0826B00F5006A42F40012826342
:1031E00014E000BFD0F8042800F5006A42F00202A3
:1031F000C0F80428826B22F400128263026842F055
:1032000040020260066846F0800606600026C0F8AC
:10321000006EDAF80060012FCAF8006006D1DAF813
:103220000070002B18BF47F0010703E0DAF8003008
:1032300043F00307DDF83090DDF83C8040F6405560
:10324000C0F203050023CAF800700193019B01330B
:103250000193019BAB4249D80369002B1BD4019B0E
:1032600001330193019BAB4240D80369002B12D478
:10327000019B01330193019BAB4237D80369002BBB
:1032800009D4019B01330193019BAB422ED8036902
:10329000B3F1FF3FDADC002301934FF48463036151
:1032A000019B01330193019BAB421FD803699B062D
:1032B0001AD5019B01330193019BAB4216D80369D8
:1032C0009B0611D5019B01330193019BAB420DD8A5
:1032D00003699B0608D5019B01330193019BAB4217
:1032E00004D803699B06DBD4002400E001240023FA
:1032F0000293029B01330293029BAB4248D80369BD
:10330000002B1BD4029B01330293029BAB423FD89C
:103310000369002B12D4029B01330293029BAB4240
:1033200036D80369002B09D4029B01330293029B18
:10333000AB422DD80369B3F1FF3FDADC00230293DF
:1033400010230361029B01330293029BAB421FD8FF
:103350000369DB061DD5029B01330293029BAB423E
:1033600016D80369DB0614D5029B01330293029B36
:10337000AB420DD80369DB060BD5029B01330293E8
:10338000029BAB4204D80369DB06DBD401E000BF3B
:1033900001244FF0000B0029CAF810B0CAF814B08D
:1033A000CAF81CB000F0FE8000F510673B684FF0D3
:1033B000006505EA13134FF67F324E1E3B60C7F8D7
:1033C00010B0BA6073D08B1E032B06F0030200947A
:1033D00004D22024002A42D162E000BF26F0030379
:1033E0004FF0000E4FF090484FF67F3C4FF0000931
:1033F00000EB0904D4F82059043B08EAE575C4F849
:103400002059C4F830E9C4F828C9D4F8405909F162
:10341000800908EAE575C4F84059C4F850E9C4F8D1
:1034200048C9D4F8605908EAE575C4F86059C4F889
:1034300070E9C4F868C9D4F8805908EAE575C4F899
:103440008059C4F890E9C4F888C9D1D109F12004A1
:10345000DDF84CE0DDF83C80DDF8309002B33D59FA
:103460004FF0904C0CEAE5753B193D5100244FF6A6
:103470007F37012A1C619F6012D01D6A022A0CEA64
:10348000E5751D621C639F620AD01F6C4FF090456A
:1034900005EAE7771F6400271F654FF67F379F64B3
:1034A000009C00294FF67F324FF000657AD0D0F8AB
:1034B000003B002E05EA1313C0F8003B4FF0000359
:1034C000C0F8103BC0F8082B6CD00239032906F075
:1034D000030C05D22023BCF1000F3ED162E000BFF7
:1034E000009426F0030300274FF090464FF67F34F8
:1034F000002100BF4518D5F8202B043B06EAE272F4
:10350000C5F8202BC5F8307BC5F8284BD5F8402BE3
:1035100001F1800106EAE272C5F8402BC5F8507B44
:10352000C5F8484BD5F8602B06EAE272C5F8602B67
:10353000C5F8707BC5F8684BD5F8802B06EAE272B7
:10354000C5F8802BC5F8907BC5F8884BD2D1009C7C
:1035500001F12003BCF1000F24D000F53062D658F1
:103560004FF0904707EAE676D118D65000264FF67E
:103570007F33BCF1010F0E618B6013D00A6ABCF17E
:10358000020F07EAE2720A620E638B620AD00A6CCB
:103590004FF0904303EAE2720A6400220A654FF694
:1035A0007F328A64DAF81010B9F1000F21F48071CB
:1035B000CAF810106FF08041C0F818B0416103D113
:1035C000816941F010018161816943F60002C8F20E
:1035D0003C021143B8F1000F816103D0816941F0D1
:1035E00008018161BEF1010F05D1816941F080417F
:1035F00041F004018161204603B0BDE8F08F000076
:103600000146806820F0010200208A6070470000B7
:10361000B0B50446C06820F0C040E06091B1012917
:1036200026D1E068002540F00050E0600120FDF761
:103630006FF96069C00705F1010014D1312D05460D
:10364000F4D310E0E068002540F08040E06000BF67
:103650000120FDF75DF96069C00705F1010002D0A6
:10366000312D0546F4D33238B0FA80F04009B0BDB0
:103670000120B0BDFEE7000080B584B00246012005
:103680000DF10F01CDE9001040F294004FF0640CF1
:10369000C2F20000A0211023CDF808C0FDF708FBFE
:1036A000002818BFFDF72EF99DF80F0004B080BD6B
:1036B00080B584B002460120CDE9001040F29400AC
:1036C0004FF0640CC2F20000A0211023CDF808C016
:1036D000FDF7A6FC20B104B0BDE88040FDF712B9AB
:1036E00004B080BD9CB0FDF7CDFDFFF775FBFFF783
:1036F00079FAFFF705FBFFF725FBFFF743FB00F027
:1037000055FA0720FCF7D6FD40F27004C2F200041F
:1037100060600120FCF7CEFDA0600120FCF7CAFD2F
:10372000E0600120FCF7C6FD20610120FCF7C2FD2E
:1037300060610120FCF7BEFDA0610120FCF7BAFD2D
:10374000E0610120FCF7B6FD20620020207000201F
:10375000FFF792FF616808701420FDF7D9F8012087
:10376000FFF78AFF616848701420FDF7D1F8022046
:10377000FFF782FF616888701420FDF7C9F8032005
:10378000FFF77AFF6168C8701420FDF7C1F80420C4
:10379000FFF772FF616808711420FDF7B9F8052082
:1037A000FFF76AFF616848711420FDF7B1F8062041
:1037B000FFF762FF616888711420FDF7A9F842F2F3
:1037C0003A00C0F20A00CDF8170046F66950C3F679
:1037D0006520059046F26540C7F22040049047F20C
:1037E0005340C7F26F2003AD0390284600F0E0F885
:1037F00060684179C27803798779009143F68941FD
:10380000C0F6000128460197FCF7FCFD284600F0B1
:10381000CFF8606843F66C41077843788278C0F649
:10382000000128460097FCF7EDFD284600F0C0F89F
:1038300032208DF80B0058A0D0E901BAD0E90389F5
:10384000077D4EE004F114030FCB00F0C1F8D4E97A
:103850000221206900F048F9D4E9011000780870CD
:10386000E068616800784870206961680078887055
:10387000606961680078C870A06961680078087143
:10388000E06900784871206A007888714248CDE983
:103890000689CDE904BA8DF8207003904879CA787A
:1038A0000B798E7943F6894100902846C0F60001D5
:1038B0000196FCF7A7FD284600F07AF8606843F609
:1038C0006C410678437882782846C0F6000100965D
:1038D000FCF798FD284600F06BF84FF4FA70FDF7FE
:1038E00017F820780128ADD1616800200122FFF788
:1038F000DFFE1420FDF70CF860680122411C012056
:10390000FFF7D6FE1420FDF703F860680122811C42
:103910000220FFF7CDFE1420FCF7FAFF60680122B9
:10392000C11C0320FFF7C4FE1420FCF7F1FF606800
:103930000122011D0420FFF7BBFE1420FCF7E8FF65
:1039400060680122411D0520FFF7B2FE1420FCF73C
:10395000DFFF60680122811D0620FFF7A9FE142009
:10396000FCF7D6FF06200DF10B010122FFF7A0FEA8
:1039700040F20046C4F2020630460121FDF7C8F8C5
:1039800030468021FDF7C4F830464FF48041FDF702
:10399000BFF80020207055E741465445522053455A
:1039A0005454494E472054494D453A2000000000E8
:1039B00010B50446FCF7AAFD82B240F2F450C2F200
:1039C000000021466423BDE81040FEF7A7BB0000BD
:1039D0002DE9F04784B00746012503A8CDE900058D
:1039E00040F29400984691460E464FF0640AC2F2A7
:1039F0000000D02103220123CDF808A0FDF758F9DB
:103A0000002818BFFCF77EFF9DF80C00CD24C1B242
:103A10006143C90A01EB8102A0EB420040EA0110B8
:103A200038700DF10D00CDE9000540F29400C2F2AE
:103A30000000D02104220123CDF808A0FDF738F9B9
:103A4000002818BFFCF75EFF9DF80D000125C1B2EC
:103A50006143C90A01EB8102A0EB420040EA011078
:103A600030700DF10E00CDE9000540F294006424A1
:103A7000C2F20000D021052201230294FDF718F9BB
:103A8000002818BFFCF73EFF9DF80E00CD26C1B2FE
:103A90007143C90A01EB8102A0EB420040EA011028
:103AA00089F800000DF10F00CDE9000540F2940007
:103AB000C2F20000D021062201230294FDF7F8F89B
:103AC000002818BFFCF71EFF9DF80F00C1B271431C
:103AD000C90A01EB8102A0EB420040EA011088F81C
:103AE000000004B0BDE8F0872DE9F04184B08046C5
:103AF00001240DF10D00CDE9000440F294001646BA
:103B00000D466427C2F20000D02100220123029753
:103B1000FDF7CEF8002818BFFCF7F4FE9DF80D0065
:103B20000122010901EB810100F00F0000EB4100CF
:103B300030700DF10E00CDE9000440F29400C2F2A5
:103B40000000D02101230297FDF7B2F8002818BF2A
:103B5000FCF7D8FE9DF80E006427010901EB8101F6
:103B600000F00F0000EB4100287001200DF10F0163
:103B7000CDE9001040F29400C2F20000D0210222F0
:103B800001230297FDF794F8002818BFFCF7BAFE4E
:103B90009DF80F00010901EB810100F00F0000EB1F
:103BA000410088F8000004B0BDE8F081B0B584B0F1
:103BB00010208DF80D0001250DF10D00CDE9000557
:103BC00040F294006424C2F20000D02107220123B5
:103BD0000294FDF725FA002818BFFCF793FE0DF1BB
:103BE0000E00CDE9000540F29400C2F20000D021A1
:103BF000002201230294FDF75BF8002818BFFCF7B0
:103C000081FE9DF80E000DF10F0100F07F008DF890
:103C10000F000120CDE9001040F294006425C2F2AB
:103C20000000D021002201230295FDF7F9F90028B8
:103C300018BFFCF767FE04B0B0BDF1EE100A4FF6F6
:103C4000FF71C0F2C03120EA010040F04070E1EEA7
:103C5000100A704700000000000000000102030489
:103C6000060708090000000001020304486F75728E
:103C70003A2025642C204D696E3A2025642C20536F
:103C800065633A202564200A005765656B64617995
:103C90003A2025642C204461793A2025642C204D5B
:103CA0006F6E74683A2025642C20596561723A2041
:103CB00025640A00D83C0008000000201000000025
:103CC00000020008E83C000810000020300C000052
:103CD0001C020008000000000100000010000000AD
:083CE0000024F40000000000C4
:04000005080001C529
:00000001FF
