:020000040800F2
:10000000200C00206D0200082D2400085921000852
:1000100029240008FD060008D92C00080000000073
:10002000000000000000000000000000352400086F
:1000300001070008000000003124000839240008EE
:10004000870200088702000887020008870200086C
:10005000870200088702000887020008870200085C
:1000600087020008870200080D07000887020008C1
:10007000870200088702000887020008870200083C
:10008000870200088702000887020008870200082C
:100090008702000887020008870200081507000889
:1000A000870200088702000887020008870200080C
:1000B00087020008870200088702000887020008FC
:1000C00087020008870200088702000887020008EC
:1000D00087020008870200088702000887020008DC
:1000E0000507000887020008870200088702000849
:1000F00087020008870200088702000887020008BC
:1001000087020008870200088702000887020008AB
:10011000870200088702000887020008870200089B
:10012000870200088702000887020008870200088B
:10013000870200080000000000000000870200089D
:10014000870200088702000887020008870200086B
:10015000870200088702000887020008870200085B
:10016000870200088702000887020008870200084B
:1001700087020008870200088702000800000000CC
:1001800000000000870200080000000000000000DE
:10019000870200080000000000000000870200083D
:1001A00000000000000000000000000087020008BE
:1001B00087020008870200088702000887020008FB
:1001C0008702000800F002F800F041F80AA090E869
:1001D000000C82448344AAF10107DA4501D100F002
:1001E00036F8AFF2090EBAE80F0013F0010F18BF8E
:1001F000FB1A43F001031847404000006040000034
:10020000103A24BF78C878C1FAD8520724BF30C842
:1002100030C144BF04680C60704700000023002414
:1002200000250026103A28BF78C1FBD8520728BF06
:1002300030C148BF0B607047642900F0F780002090
:1002400070471FB503F049FF1FBD10B510BD00F08A
:100250001FFA1146FFF7F5FF02F042FD00F03DFAEC
:1002600003B4FFF7F2FF03BC00F040FA09488047EF
:1002700009480047FEE7FEE7FEE7FEE7FEE7FEE788
:10028000FEE7FEE7FEE7FEE704480549054A064BA0
:1002900070470000F1240008C50100082006002076
:1002A000200C0020200800202008002053EA020C27
:1002B00000F069802DE9F04B4FF00006002B1FBFC6
:1002C000B3FA83F503FA05F424FA05F65E4012BF8B
:1002D0001643B2FA82F502FA05F4C5F120051EBFF5
:1002E00022FA05FC44EA0C04203556EA044C4FEA95
:1002F000144418BF641C4FF000084FF000099042EE
:1003000071EB030C39D3002919BFB1FA81F701FA57
:1003100007F6B0FA80F700FA07F6C7F120071EBF0C
:1003200020FA07FC46EA0C062037B6FBF4FCA7EBE4
:100330000507103F07F01F0BCBF120062CFA06F63D
:100340000CFA0BFB44BFB3460026202FA4BF5E4629
:100350004FF0000B5BEA060C08BF4FF0010B19EBE6
:100360000B0948EB0608ABFB027C06FB02CC0BFB3F
:1003700003CCC01B71EB0C01C1E70B4602464146A2
:100380004846BDE8F08B13B5084318BF4FF0FF3067
:100390000146AFF30080BDE81C4070470FB41CB5A8
:1003A000074B06AA7B4469460090059800F04FF978
:1003B0000020694600F05EF91CBC5DF814FB0000EB
:1003C000CD0200002DE9F0410E46044600202062D7
:1003D0002046E168884730B3252805D0D4E90121BB
:1003E0009047206A401CF2E7E168204600278847D2
:1003F000050018D0A5F14100192802D820354FF486
:1004000000673246294620462760FFF715FF40B1B6
:10041000012804D0F61D26F007060836D8E7361D59
:10042000D6E72846DAE7206ABDE8F0812DE9F041F9
:100430000646002410687529314616A510D0AFF382
:100440000080002802DA404213A507E031688A07DD
:1004500001D512A502E0490704D511A5012401E048
:10046000AFF3008000210A2206F1240709E0B0FB67
:10047000F2FCB0FBF2F302FB1C003030785418465B
:10048000491C0028F3D123462A463046BDE8F041F6
:1004900000F07EB8000000002D0000002B000000DE
:1004A0002000000010B5431C02E010F8011B71B1E0
:1004B0008107FAD14FF0013202C88C1A8C4314EA3A
:1004C000C211F9D0C01A0A0603D0C01E10BDC01A4E
:1004D00010BD0A0401D0801E10BD0902FCD0401ED0
:1004E00010BD4FF000020429C0F0128010F0030C80
:1004F00000F01B80CCF1040CBCF1020F18BF00F817
:10050000012BA8BF20F8022BA1EB0C0100F00DB8C5
:100510005FEAC17C24BF00F8012B00F8012B48BF23
:1005200000F8012B70474FF0000200B513469446C7
:100530009646203922BFA0E80C50A0E80C50B1F13B
:100540002001BFF4F7AF090728BFA0E80C5048BF4F
:100550000CC05DF804EB890028BF40F8042B08BFED
:10056000704748BF20F8022B11F0804F18BF00F8E9
:10057000012B704770477047704710B500F080F846
:10058000006810BD10B5044600F07AF8046010BD94
:100590002DE9F0470D4699469246044600F124089D
:1005A0000168880604D5E06921F01001216000E0AF
:1005B0000120A84201DD471B00E00027A1697A194C
:1005C00002EB0900081AA0612078C00602D4204678
:1005D000AFF30080002608E0D4E901211AF80600F4
:1005E0009047206A401C761C20624E45F4DB207840
:1005F000C0060AD52046AFF3008006E0D4E9012109
:1006000030209047206A401C2062381EA7F1010765
:10061000F4DC07E0D4E9012118F805009047206ACE
:10062000401C2062281EA5F10105F3DC2046AFF333
:1006300000802078000602D50220BDE8F087012066
:10064000FBE7000001694A1C02610878704700B5A9
:100650008FB0CDE901310021059105497944CDE9FB
:10066000031011466846FFF7ADFE0FB000BD000055
:10067000E5FFFFFF0A6802F8010B0A6070470000FF
:10068000004870471000002000487047100000200C
:100690007546FFF7F9FFAE4605006946534620F060
:1006A0000700854618B020B5FFF7EEFDBDE82040F5
:1006B0004FF000064FF000074FF000084FF0000B1E
:1006C000AC46ACE8C009ACE8C009ACE8C009ACE88D
:1006D000C00921F007018D46704710B50446AFF3FD
:1006E00000802046BDE81040FFF7BABD0149182040
:1006F000ABBEFEE72600020070470000FEE70000E8
:10070000704700004FF4005000F096BB102000F03E
:1007100093BB000080B5202000F08EFB402000F04D
:100720008BFB8020BDE8804000F086BBEFF310809B
:1007300072B600BFFEE7000070B581B000220092E3
:1007400090F83C20012A03D10221084601B070BD77
:100750000E6801220A2E80F83C2009D3B2B2520062
:10076000D0F800E012FA86F21E3A0EF10C0305E012
:10077000D0F800E006EB46020EF110034FF0070C34
:100780001D680CFA02F4A5431D608D681C6805FA0B
:1007900002F222431A604968062905D801EB81015B
:1007A00005390EF1340309E00C2901EB810187BF03
:1007B00041390EF12C0323390EF130031F221C683E
:1007C0008A4024EA020242F2043C1A60C4F2010C9C
:1007D000B2B21C6802FA01F1ACF5417221439645B0
:1007E000196005D0002180F83C10084601B070BDAA
:1007F0001221112EC1F2000118BF8E423AD1DCF84D
:1008000000208E4222F48002CCF80020DCF8002088
:1008100042F40002CCF80020E4D140F20801C2F218
:10082000000109684DF68362C4F21B32A1FB02127B
:10083000910C01EB81014900009100990029D1D070
:1008400000990139009100990029CBD00099013914
:10085000009100990029C5D00099013900910099B3
:100860000029BFD000990139009100990029E7D1F2
:10087000B8E700BF122EB5D1DCF8001021F400015A
:10088000CCF80010DCF8001041F48001CCF8001026
:10089000A8E700000068C06C70470000002804BF93
:1008A0000120704710B50446006C00283ED0206C33
:1008B000C00645D4206C41F202118843023042F256
:1008C00004312064C4F20101086820F4403008605B
:1008D0000A6894E809101A43D4F810E00A604168E5
:1008E000012321F4807141604168C0F6007341EA40
:1008F0000E214160416821F040714160416841EA48
:100900000C014160816821F400618160E1688268C6
:1009100011438160A16A8268994222F0706282600C
:10092000826813D122F0405119E000BF204600F048
:1009300065F80020606484F83C00206CC006B9D5DE
:100940000120002184F83C1010BD00BF11438160DC
:10095000816821F040518160E16A826811438160C1
:10096000816821F0020181608168227E94F8203044
:1009700041EA42018160416883B141F40061416014
:1009800041684EF2000221F460414160616ACFF695
:10099000FF72436802EB4131194301E021F4006129
:1009A0004160C16A40F2000C21F47001C162E26949
:1009B0006169CFF6F07CC36A0CEB02521A43C26243
:1009C000826822F40072826094F83020836843EADF
:1009D00042228260826822F480628260826842EAF7
:1009E0008121816000206064216C012262F3010199
:1009F0002164002184F83C1010BD000080B586B051
:100A000042F200210068C4F20101002288420592EE
:100A1000049201D006B080BD43F630000092C4F2CB
:100A20000200436943F480634361436903F48063D4
:100A30000093009B0092036843F02003036000686A
:100A400000F0200000900098202001900320CDE9C4
:100A5000020201F5724001A900F0FAF906B080BD6A
:100A600070B5044600680D468268520544BF806830
:100A70005FEAC05038D400F0CFFA21680A689207C4
:100A800049D40646681C3CD0DDB90868800721D5EA
:100A9000086880073FD4086880071BD5086880076E
:100AA00039D40868800715D50868800733D40868EA
:100AB00080070FD508688007E7D52CE00868800715
:100AC00029D400F0A9FA801B2168A842F6D9086849
:100AD0008007F3D4206C40F004002064002084F8E8
:100AE0003C00032070BD00BF206C40F0200020645B
:100AF000002084F83C00012070BD00BF086880071A
:100B000009D40868800706D4086880075CBF0868B5
:100B10005FEA8070F2D56FF012000860206C40F43C
:100B200000702064886810F0405F01D1207E08B119
:100B3000002070BDC86A10F4700F02D088684005AC
:100B4000F6D4206C20F480702064206CC004EFD4B4
:100B5000206C40F001002064002070BD10B581B011
:100B60000021009190F83C10012903D1022001B02E
:100B700010BD00BF0468012180F83C10214651F8E7
:100B8000083FDB0729D10B684DF6836243F0010370
:100B90000B6040F20803C2F200031B68C4F21B3270
:100BA000A3FB02239A0C02EB42020092009AA2B12C
:100BB000009A013A0092009A7AB1009A013A0092A2
:100BC000009A52B1009A013A0092009A2AB1009A12
:100BD000013A0092009A002AEAD10A68036CD2070F
:100BE0000AD143F01001016400F1440101200A68B8
:100BF0001043086056E000BF40F2017223EA02028F
:100C000002F5807202646268520504D5026C012309
:100C100063F30D320264026C4FF0000E0023D20425
:100C200044BF426C22F0060342F2043C436480F865
:100C30003CE06FF02200C4F2010C2060DCF8000000
:100C4000C0060DD0ACF5417084422BD14FF6045054
:100C5000CFF6FF705CF8000010F0405F22D125E075
:100C600042F20000C4F20100844217D042F2002098
:100C7000C4F2010084420DD042F20010C4F201001F
:100C800084420FD1DCF80000C00607D0ACF58270BA
:100C9000844207D1DCF80000C00603D4086810F0D5
:100CA000405F03D0002001B010BD00BF4FF0804076
:100CB0009DE7000010B54379012B4FF002031DD0D2
:100CC0000371036802F0100ED3F800C0D1E90041AF
:100CD00040F6FE7202FA0EF221432CEA020201FAF9
:100CE0000EF111431960C0211A6801FA0EF122EACF
:100CF000010119600121002301714371184610BDE3
:100D0000002804BF0120704710B50446007920B9BF
:100D100000206071204600F007F8022020710020BA
:100D200001212061217110BD80B586B047F20041DC
:100D30000068C4F20001002288420592049201D0AA
:100D400006B080BD43F630000092C4F20200036991
:100D500043F000530361036903F000530093009BC9
:100D60000092036843F001030360006800F0010093
:100D700000900098102001900320CDE9020201F5B7
:100D8000C63001A900F064F806B080BD81B04FF014
:100D9000000CCDF800C000680029009000981044B5
:100DA00014BF143008300090009900200B6001B08F
:100DB0007047000010B54279012A4FF0020223D09B
:100DC0000271026801F0100E4FF0010C14680CFA69
:100DD0000EF323431360D2F800C049B13C230CF456
:100DE000701103FA0EF399420AD1022105E000BF07
:100DF0000CF03C013C2903D1012153681943516097
:100E00000121002201714271104610BDB0B50446A7
:100E100000F002F9054640F20000C2F2000000783E
:100E2000611C18BF044400BF00F0F6F8401BA0424C
:100E3000FAD3B0BD7047000043F61441C4F201017B
:100E40000A68024214BF08607047FFF7F3BF000052
:100E50002DE9F04F82B000F13E4241F6000502F16B
:100E6000FF77C4F2020507224FEAB726A84208BF5F
:100E70000622062E38BF4FEAB7224FF0010A00249F
:100E800000274FF00008009208E000BF023708F189
:100E90000108202F04F1040400F0B4800E680AFA5F
:100EA00008F916EA090FF1D0D1F804A00AF0030BF3
:100EB000ABF10106012E17D80322866802FA07FE5D
:100EC000CA6826EA0E06BA40324382604268CAF314
:100ED000001522EA090205FA08F54FEA480C6FEA04
:100EE0000E062A4342600BE00322BA40D643BBF110
:100EF000030FBC4604D1BC464FF0030B22E000BFF9
:100F0000C2688D68324005FA0CF52A43BBF1020F26
:100F1000C26017D16FF0030202EA5802024404F0E3
:100F20001C030F25D2F820E005FA03FA0D692EEA1A
:100F30000A0E05FA03F343EA0E031362D1F804A084
:100F40000AF0030B02680BFA0CF332401A431AF44E
:100F5000403F4FF0010A026098D0002243F644035C
:100F60000192C4F202031A6843F6004E42F4804232
:100F70001A601A68C4F2010E02F480420192019ACA
:100F800028F003024FF6084C7244CFF6FF7C52F86B
:100F90000C3004F00C060F25B540AB43009D05FA5C
:100FA00006F6334342F80C30DEF808204B6842EA7C
:100FB000090643F60C4CDD0258BF22EA0906CEF8BA
:100FC0000860C4F2010CDCF800209D0242EA090628
:100FD00058BF22EA0906CCF80060DEF804209D0321
:100FE00042EA090658BF22EA0906CEF80460DEF894
:100FF0000020DB0342EA090658BF22EA0906CEF8C0
:10100000006043E702B0BDE8F08F0000002A08BF8F
:10101000090481617047000040F21C60C2F20000C8
:101020000068704740F2000040F21C61C2F200000C
:10103000C2F2000100780A6810440860704700009E
:1010400080B543F60040C4F20200016841F400712B
:101050000160016841F480610160016841F48071C0
:101060000160032000F084F8002000F005F800F093
:1010700027F8002080BD000070B540F20006C2F2E3
:10108000000640F208013278C2F200014FF47A7390
:101090000968B3FBF2F20446B1FBF2F1084600F036
:1010A0009FFE0F2C4FF0010508D838B94FF0FF30E4
:1010B00021460022002500F02FF87460284670BDFC
:1010C00082B0002043F640010190C4F202014A6858
:1010D00042F480424A604A6802F480420192019AD6
:1010E0000090086840F080500860086800F0805068
:1010F0000090009802B07047002848BF704700F089
:101100001F01012202FA01F14EF200124009CEF253
:10111000000242F82010704710B54EF60C5CCEF27B
:10112000000CDCF80030C3F3022E8EF00704042C10
:1011300028BF0424BEF103034FF0FF3E0EFA04F46F
:1011400038BF0023A14399400EFA03F39A43114399
:1011500000F00F02043A624409010C3200F16043CE
:10116000B0F1FF3FC8BF03F56442117010BD00002D
:101170004EF60C51CEF200010A684FF6FF031A40FA
:1011800060F30A2242F0806040F0FD700860704712
:1011900001220168C0F80025002280F8F424886943
:1011A00040F000608861486D40F0805040F00302DC
:1011B00000204A65704700002DE9F04F8BB00028F1
:1011C00000F086800446056890F8BD0428B9002028
:1011D00084F8BC04204600F093F8032084F8BD0492
:1011E000E86BC0055CBF00202061206801F03AFD7B
:1011F000206804F11C0A0A90D4E90C5004F1040E92
:101200009AE8C0079EE80E58CDE9085003A880E888
:10121000C0030A988DE80058CDF81CA001F0E4F94D
:10122000002852D120680021002501F023FD6168CB
:1012300061B301200023002203EBC30304EB830707
:1012400087F83C20D3B20132A7F84430D3B2994298
:1012500087F83D0087F84050C7E912557D65EBD807
:1012600000200023002200BF03EBC30304EB83072D
:1012700087F87C220132D3B2994287F87D0287F841
:101280008002C7E9A200C7F89402EDD8A0682268DE
:101290000A90D4E90C5004F1140E04F1240AD4E9A4
:1012A00003379EE840589AE80007CDE9085002A8A5
:1012B00080E8005810460A9ACDE90076CDE9058904
:1012C000CDF81CA001F090FA30B1022084F8BD04E2
:1012D00001200BB0BDE8F08F002084F83800012019
:1012E00084F8BD04606A012802D12046FFF750FF50
:1012F000206801F069FA00200BB0BDE8F08F000013
:10130000F0B59DB0044601A804305821FFF70BF951
:101310002068B0F1A04F01D01DB0F0BD4FF4807037
:10132000019001A800F03EF8002818BFFFF7FEF971
:10133000002743F630061897C4F2020630680024EE
:1013400040F0010030603068C4F2020400F0010097
:10135000189018984FF4E85018900220CDE919071A
:1013600003201B900A2018AD1C9020462946FFF749
:101370006FFD4FF40070CDE91807204629461A97F3
:10138000FFF766FD706840F080007060009770693C
:1013900040F480407061706900F4804000900098D3
:1013A0001DB0F0BD2DE9F04381B00446006843F65E
:1013B0008C06C107C4F2020604D14FF00009810770
:1013C0000CD415E03168A26B21F0C061114331608B
:1013D000B2FA82F14FEA5119810709D53168E26BFF
:1013E00021F0C05111433160002A08BF4FF00109BC
:1013F000410705D44FF00008010712D420E000BFD8
:101400003168226B21F4401111433160B2FA82F14C
:101410004FEA5118B2F5801F08BF4FF001090107CC
:101420000ED53168626B21F440011143B2F5800F93
:10143000316008BF4FF00109002A08BF4FF00108D2
:1014400081065AD50020009056F84C0C47F2000750
:1014500040F0805046F84C0C56F84C0CC4F2000793
:1014600000F0805000900098386840F48070386038
:10147000FFF7D2FD054600BF3868C00506D4FFF768
:10148000CBFD401B0228F7D93CE100BF56F81C0CED
:1014900010F4407017D0216C01F44071884212D0D2
:1014A00056F81C0C40F64061C4F24721012220F49A
:1014B00040700A6000220A6046F81C0C56F81C0CAA
:1014C000C00740F075812068216C56F8842C4FF6D7
:1014D000FF4701F4407322F4F812C0F6FF770F4083
:1014E000B3F5407F08BF3A4346F8842C56F81C2CCD
:1014F0006FF31F31114346F81C1CC1060AD40106C4
:1015000013D4410619D4C1051FD481052AD441053D
:1015100030D438E094F8580040F64061C4F24721D6
:10152000C1F8A00320680106EBD5B168E26C21F494
:1015300040011143B1604106E5D5B168A26C21F0CC
:1015400080611143B160C105DFD5B168626D21F0E2
:1015500000611143B160B2F1006F08BF4FF00108A4
:101560008105D4D5B168626C21F080511143B1601E
:10157000410508D5B168226D21F000511143B2F147
:10158000005FB1601ED0B9F1000F1BD1B0F5006F44
:1015900018D0B8F1000F4FF0000000F01B81682751
:1015A000C4F24727B860FFF737FD054656F88C0CA4
:1015B000800040F1AB80FFF72FFD401B0228F5D9DA
:1015C000A0E000BF40F26809C4F247290020C9F832
:1015D0000000FFF721FD054656F88C0C000105D5EB
:1015E000FFF71AFD401B0228F6D98BE02068C107DF
:1015F00001D0A16B19B1810714D5E16B91B956F8EF
:10160000081C56F8082CD4E9013501F4403102F0E9
:10161000706219436769114341EA851141EA077114
:1016200046F8081C410703D5216BB1F5801F05D092
:1016300001071FD5616BB1F5800F1BD156F8081C4F
:1016400056F8082CD4E9013701F4403102F0E042A9
:1016500019432569114341EA871141EA0561D4F82C
:1016600028C046F8081C3168ACF1010221F01F01C6
:1016700011433160410520D5216DB1F1005F1CD1CE
:1016800056F808CC56F8082CE5680021CFF6FF7113
:10169000D4E9013701EBC5314FF0C06502F0E042FB
:1016A00005EA4C2505F100751A432A436FF30F0133
:1016B00042EA8712114346F8081C000511D5271D80
:1016C0008FCF40EA81100021CFF6FF7101EBC231CC
:1016D0006FF30F0140EA0360084340EA077046F8E1
:1016E000080C0120C9F80000FFF796FC054600BF72
:1016F00056F88C0C00013FF54CAFFFF78DFC401BFA
:101700000228F5D9032001B0BDE8F0832068410725
:1017100001D5216B19B101071AD5616BC1B956F812
:10172000041CD4E9062301F44031656A114341EAFF
:10173000831141EA0561D4F82CC046F8041C3168D5
:101740006FF0FF0221F4F85102EB0C2211433160DB
:10175000C00517D5606DB0F1006F13D156F8040CB9
:1017600004F118030ECB002500F07060CFF6FF7572
:1017700005EBC33308436FF30F0340EA82101843AD
:1017800046F8040C0120B860FFF746FC044600BF91
:1017900056F88C0C800007D4FFF73EFC001B032892
:1017A000F6D3032016E000BF002001B0BDE8F083AF
:1017B000FFF732FC054641F2883700BF56F81C0C93
:1017C00080073FF580AEFFF727FC401BB8424FF083
:1017D0000300F3D901B0BDE8F08300002DE9F0412A
:1017E000002800F08B8043F60808C4F20208044683
:1017F000D8F8F8030D4600F00F00884207D288F8A9
:10180000F853D8F8F80300F00F00A84276D120680A
:10181000810717D5410705D5D8F8001041F4E051EC
:10182000C8F80010010705D5D8F8001041F4604150
:10183000C8F80010D8F80010A26821F0F001114398
:10184000C8F80010C0073FD1D8F8F80300F00F0027
:10185000A84207D988F8F853D8F8F80300F00F0029
:10186000A8424BD12068410707D5D8F80010E2689C
:1018700021F4E0511143C8F80010000708D5D8F84A
:101880000000216920F4604040EAC100C8F800006F
:1018900000F07CF8D8F8001044F22022C1F30311C4
:1018A000C0F60002515C40F2080220FA01F140F259
:1018B0000400C2F200000068C2F200021160FFF7EB
:1018C000DBFB0020BDE8F0816068811E022907D2A1
:1018D00058F8081C89015CBF0120BDE8F08111E0C7
:1018E000012807D158F8081C89035CBF0120BDE816
:1018F000F08107E058F8081C890703D40120BDE8EF
:10190000F08100BFD8F8001021F003010843C8F8A7
:101910000000FFF781FB064641F28837D8F8000047
:10192000616800F00C00B0EB810F8DD0FFF774FB05
:10193000801BB842F2D90320BDE8F08140F20800D4
:1019400043F60801C2F20000C4F20201006809680F
:1019500044F23022C1F38221C0F60002515CC8403B
:101960007047000040F2080043F60801C2F2000090
:10197000C4F202010068096844F23022C1F3423126
:10198000C0F60002515CC8407047000010B543F635
:101990000404C4F202046068C0F3810142F2004012
:1019A000C0F2F400DFE801F04402081841F2002020
:1019B000C0F27A0010BD00BF216801F03F0221682B
:1019C00023684902C3F3881116D4A1FB0001002348
:1019D000FEF76CFC17E000BF216801F03F022168B0
:1019E00023684902C3F3881116D4A1FB0001002328
:1019F000FEF75CFC17E000BF41F20020C0F27A0065
:101A00004843B0FBF2F021680222C1F3014102EB2E
:101A10004101B0FBF1F010BD41F20020C0F27A00AC
:101A20004843B0FBF2F02168C1F30271B0FBF1F062
:101A300010BD00002DE9F04182B0002800F0968032
:101A40000446007843F60006C007C4F202062BD015
:101A5000B06800F00C00042820D0B06800F00C0042
:101A6000082802D17068400218D4B06800F00C0059
:101A70000C2802D17068400210D46068B0F5803F35
:101A800007D0B0F5A02F40F03B81306840F48020B3
:101A90003060306840F4803030603BE13068800373
:101AA00002D56068002861D02078800722D5B06810
:101AB00010F00C0F11D0B06800F00C00082802D113
:101AC0007068400209D5B06800F00C000C2840F0A6
:101AD0009F807068400200F19B803068800702D5CB
:101AE000E068012842D13068216920F0F80040EA1E
:101AF000C1003060207800073CD42078400751D4E2
:101B0000A5698DB3B06800F00C00082840F0A880EB
:101B1000012D2BD07068E16900F480028A4225D142
:101B2000216A00F03F028A4220D147F6C071626A02
:101B30000140B1EB821F19D1A26A0023CFF6FF73D7
:101B400003EBC23200F440316FF30F0291420DD12A
:101B5000E16A00F07062B2EB016F07D1216B00F017
:101B6000E040B0EB017F01D1002035E1012002B05F
:101B7000BDE8F0816069002840F20000C4F247200F
:101B80005ED00121C0F8801EFFF746FA054600BF6F
:101B9000706F8007B1D4FFF73FFA401B0228F7D9D6
:101BA000C5E000BF306C10F080580AD100200190D1
:101BB000306C40F080503064306C00F08050019008
:101BC000019847F20007C4F200073868C00511D435
:101BD000386840F480703860FFF71EFA054600BF91
:101BE0003868C00506D4FFF717FA401B0228F7D95A
:101BF0009DE000BFA068012805D0052852D1306FB4
:101C000040F004003067306F40F00100306753E06F
:101C1000E068002860D00020C4F247200121016064
:101C2000FFF7FAF9054600BF306880073FF55BAF64
:101C3000FFF7F2F9401B02284FF00300F4D9CBE084
:101C40000021C0F8801EFFF7E7F90546706F800796
:101C50007FF553AFFFF7E0F9401B0228F6D966E0A5
:101C60000027C4F2472700203866FFF7D5F9022D78
:101C700005460BD1306880015ED5FFF7CDF9401BDA
:101C800002284FF00300F5D9A6E000BF30688001BC
:101C90007FF56AAFFFF7C0F9401B02284FF0030041
:101CA000F4D999E0316F002821F001013167316FDB
:101CB00021F00401316765D0FFF7AEF9054641F226
:101CC000883700BF306F80076ED4FFF7A5F9401B3F
:101CD000B842F7D92BE000BF0020C4F24720002112
:101CE0000160FFF799F90546306880077FF502AF7C
:101CF000FFF792F9401B02284FF00300F4D96BE084
:101D00003168002821F480313160316821F480216C
:101D1000316053D0FFF780F9054600BF306880037B
:101D20003FF5C2AEFFF778F9401B6428F6D90320CF
:101D300002B0BDE8F08100BF04F11C052FCD246B7B
:101D400008430021CFF6FF7140EA821001EBC33156
:101D50006FF30F0140EA0560084340EA04707060C9
:101D600001203866FFF758F9044600BF306880014B
:101D70003FF5FAAEFFF750F9001B02284FF00300C1
:101D8000F4D929E0FFF748F9054641F2883700BF4A
:101D9000306F800708D5FFF73FF9401BB8424FF07E
:101DA0000300F5D918E000BFB8F1000F7FF4A8AE2A
:101DB000306C20F080503064A2E600BFFFF72CF9B1
:101DC0000546306880037FF56FAEFFF725F9401BAD
:101DD00064284FF00300F4D902B0BDE8F0810000A0
:101DE000411E0020B0EB116F1CBF012070474EF266
:101DF0001002CEF2000251604EF62351CEF20001E5
:101E0000F0230B700721906011607047002804BF19
:101E10000120704710B5044690F83D0028B9002015
:101E200084F83C00204600F021F8242084F83D008E
:101E30002068C16821F40051C160204600F062FBB7
:101E40002068016921F490410161416921F02A0172
:101E50004161C16841F40051C1600020202120642B
:101E600084F83D1084F83E1010BD000080B586B0A7
:101E7000016844F60000C4F20000814202D006B0BE
:101E800080BD00BF002143F630020191C4F202027E
:101E9000136900F5E23043F480231361136903F4FE
:101EA00080230193019B0191136843F008031360A1
:101EB000126802F008020192019A4FF440720192F6
:101EC0000222CDE90221032104910721059101A9F4
:101ED000FEF7BEFF06B080BD2DE9F04381B0044699
:101EE00090F83D0020280DD10F4600294FF0010049
:101EF00000F0DD801646002A00F0D98094F83C00FE
:101F0000012803D1022001B0BDE8F083012084F84C
:101F10003C004FF0000921201D46C4F8409084F891
:101F20003D00FFF779F8A684E684A1680646B1F57E
:101F3000805F07D1206900281CBF38464F46B8464D
:101F4000074601E04FF0000884F83C90E18C2068DF
:101F5000002900F08B8005F101090AE047B317F86A
:101F6000011B4160E18C0139E184E18C002900F022
:101F70007D8001680906F1D4B9F1000F0AD0EDB1F6
:101F8000FFF74AF8801BA84218D8206801680906A4
:101F9000F6D5E3E701680906E0D4016809065CBFED
:101FA00001685FEA0161D9D401680906F2D5D5E775
:101FB00038F8021B00276FF35F21D2E7206850E852
:101FC000030F216820F4D07041E80302BAB32068FF
:101FD00050E8030F216820F4D07041E8030272B387
:101FE000206850E8030F216820F4D07041E8030214
:101FF0002AB3206850E8030F216820F4D07041E82C
:102000000302002ADAD11AE0206850E8050F21689F
:1020100020F0010041E80502DAB1206850E8050F20
:10202000216820F0010041E8050292B1206850E8E3
:10203000050F216820F0010041E805024AB120683F
:1020400050E8050F216820F0010041E80502002A50
:10205000DAD1202084F83D0084F83E00002084F886
:102060003C00032001B0BDE8F08300BF01684906D1
:1020700019D4FDB1691C0DD10168490613D401685A
:1020800049065CBF01685FEA41610CD401684906FA
:10209000F2D508E0FEF7C0FF801BA8420AD82068EE
:1020A00000684006F6D5202084F83D00002001B0ED
:1020B000BDE8F083206850E8030F216820F4D07059
:1020C00041E80302E2B3206850E8030F216820F4DE
:1020D000D07041E803029AB3206850E8030F2168EA
:1020E00020F4D07041E8030252B3206850E8030F97
:1020F000216820F4D07041E80302002ADAD11FE001
:10210000206850E8050F216820F0010041E8050231
:10211000002A9ED0206850E8050F216820F00100B9
:1021200041E80502002A3FF494AF206850E8050F0B
:10213000216820F0010041E80502002A3FF489AF40
:10214000206850E8050F216820F0010041E80502F1
:10215000002AD5D17DE70000FEE70000B0B584B0CD
:1021600040F2700042F2002101230024C2F200007C
:10217000C4F20101C0F60073012503944FF48032CC
:10218000047680F82040C0E90A34C56180F8304008
:1021900080E81600C0E903444561FEF77FFB28B1E3
:1021A000EFF3108072B600BFFEE700BF0F20CDE94D
:1021B000000540F27000C2F2000069460294FEF78A
:1021C000BBFA28B1EFF3108072B600BFFEE700BF84
:1021D00004B0B0BD80B582B00020CDE9000040F26F
:1021E000B80047F20041C2F20000C4F200010160F1
:1021F000FEF786FD20B1EFF3108072B6FEE700BF58
:1022000040F2B800C2F2000069460022FEF752FD1B
:1022100020B1EFF3108072B6FEE700BF02B080BDC0
:102220002DE9F04F87B0002443F63000CDE9054496
:102230000194C4F20200016840F6000841F0040174
:1022400001600168C4F2020801F0040101910199E2
:1022500001940168A8F5806741F0200101600168E0
:10226000002201F02001019101990194016844F2DA
:10227000810A41F080010160016801F08001019153
:1022800001990194016841F001010160016801F0C8
:102290000101019101990194016841F0020101607D
:1022A000016801F00201019101990194016841F076
:1022B00008010160016801F0080101910199019490
:1022C000016841F040010160006844F2810100F0C2
:1022D0004000019001983846FEF798FE08F58055B9
:1022E0002846402100224FF0400BFEF78FFE40466B
:1022F0004FF470610022FEF789FE4FF4005002AEE9
:1023000002904FF4881940463146CDE90394FEF718
:102310009FFDCDF808A04FF0010A38463146CDE9BF
:1023200003A40594FEF794FD28463146CDE902BA90
:10233000CDE90444FEF78CFD8020CDE90204284657
:1023400031460494FEF784FD4FF47060CDE9020A33
:1023500040463146CDE90444FEF77AFDF020CDE950
:1023600002090220049008F580603146FEF770FDF6
:102370000A2000210022FEF7CFFE0A20FEF7BCFE55
:10238000172000210022FEF7C7FE1720FEF7B4FE3B
:10239000282000210022FEF7BFFE2820FEF7ACFE19
:1023A00007B0BDE8F08F000080B540F2D85044F689
:1023B0000001C2F20000C4F2000100234FF00C0C37
:1023C0004FF4164280E80E00C0E90333C0E905C3AC
:1023D000C361FFF71BFD002808BF80BDEFF310802D
:1023E00072B600BFFEE7000080B540F2CC00C2F23A
:1023F00000004FF0A0410622C0E900120221002295
:102400000123C0E90312C0E90613C0E90822C0E9AC
:102410000B32FEF7D1FE002808BF80BDEFF310801D
:1024200072B600BFFEE70000FEE70000FEE7000016
:102430007047000070470000FEF7F4BDB0B594B0DF
:10244000002443F64000CDE90B44CDE9094406944D
:10245000CDE90444CDE902440194C4F202000168CC
:10246000022541F080510160006800F08050019029
:10247000019847F200000194C4F20000016841F4A1
:1024800040410160006800F4404001900198012043
:1024900007904FF4A02008904FF480000E90042085
:1024A0000F90A820CDE910050720CDE9120507A857
:1024B0000D95FFF7BFFA28B1EFF3108072B600BF99
:1024C000FEE700BF0F20CDE902054FF4A0500590B4
:1024D0004FF48050069002A805210494FFF77EF97E
:1024E00020B1EFF3108072B6FEE700BF14B0B0BDAC
:1024F0004EF68850CEF20000016841F47001016090
:102500007047000010B504460068D4E902C2236990
:10251000016921F4405111430161626943EA0C01F0
:10252000E3691143C268194349F20C639A431143AA
:10253000C1604169A26921F4407141F20043114335
:1025400040F48062C4F201039A42416102D1FFF774
:1025500009FA01E0FFF7F2F9E16963681922B1F5C0
:10256000004FA0FB02011FD15A00DB0FFDF79EFEBA
:1025700048F21F51C5F2EB11A0FB01235A096FF07D
:10258000630302FB0300322303EBC000A0FB010145
:102590004FF4F87000EA111000EB0210C1F3421181
:1025A00008442168886010BD9A009B0FFDF77EFEED
:1025B00048F21F51C5F2EB11A0FB01235A096FF03D
:1025C000630302FB0300322303EB0010A0FB0101B5
:1025D000F02000EA511000EB0210C1F3431108444F
:1025E0002168886010BD000082B00499DDF808C041
:1025F000012940F64051C0F203016FD1826B4FF6C2
:10260000BF7322F480328263C268CFF6BD731A4072
:10261000C260C2680B9B22F44012012BC26003D13E
:10262000C26842F48012C26000220092009A013215
:102630000092009A8A4200F2A9800269002A1ED400
:10264000009A01320092009A8A4200F29F80026949
:10265000002A14D4009A01320092009A8A4200F2B1
:1026600095800269002A0AD4009A01320092009AE9
:102670008A4200F28B800269B2F1FF3FD6DC002271
:102680000092026942F001020261009A0132009256
:10269000009A8A427AD80269D2071AD0009A013287
:1026A0000092009A8A4271D80269D20711D0009A2A
:1026B00001320092009A8A4268D80269D20708D093
:1026C000009A01320092009A8A425FD80269D207CA
:1026D000DBD10021BCF1010F72D169E0C268089B17
:1026E00042F04002C26000220192019A013201923E
:1026F000019A8A4250D80269002A1BD4019A0132F9
:102700000192019A8A4247D80269002A12D4019A9A
:1027100001320192019A8A423ED80269002A09D404
:10272000019A01320192019A8A4235D80269B2F1C6
:10273000FF3FDADC00220192026942F001020261ED
:10274000019A01320192019A8A4225D80269D20780
:102750001AD0019A01320192019A8A421CD8026968
:10276000D20711D0019A01320192019A8A4213D8FC
:102770000269D20708D0019A01320192019A8A4275
:102780000AD80269D207DBD1002106E00321BCF19F
:10279000010F15D10CE000BF0321826B002B14BF89
:1027A00022F4803242F480328263BCF1010F07D1FF
:1027B000826842F006028260826842F020028260F3
:1027C000084602B0704700000146D0F8000E20F025
:1027D0000300C1F8000ED1F8040840F00202002006
:1027E000C1F80428704700002DE9F04F83B0DDF8F0
:1027F0004CE00E9F0022BEF1000FC0F80421C0F88B
:102800000821C0F80C21C0F81021C0F81421C0F82C
:102810001821C0F81C21C0F82021C0F82421C0F8DC
:102820002821C0F82C21C0F83021C0F83421C0F88C
:102830003821C0F83C2107D0826B00F5006A42F4D1
:102840000012826314E000BFD0F8042800F5006A8B
:1028500042F00202C0F80428826B22F40012826364
:10286000026842F040020260066846F08006066098
:102870000026C0F8006EDAF80060012FCAF8006088
:1028800006D1DAF80070002B18BF47F0010703E00B
:10289000DAF8003043F00307DDF83090DDF83C80D3
:1028A00040F64055C0F203050023CAF800700193BA
:1028B000019B01330193019BAB4249D80369002B73
:1028C0001BD4019B01330193019BAB4240D80369A8
:1028D000002B12D4019B01330193019BAB4237D8EB
:1028E0000369002B09D4019B01330193019BAB4287
:1028F0002ED80369B3F1FF3FDADC002301934FF4D4
:1029000084630361019B01330193019BAB421FD898
:1029100003699B061AD5019B01330193019BAB42CE
:1029200016D803699B0611D5019B01330193019BC6
:10293000AB420DD803699B0608D5019B0133019377
:10294000019BAB4204D803699B06DBD4002400E062
:10295000012400230293029B01330293029BAB42AA
:1029600048D80369002B1BD4029B01330293029BBE
:10297000AB423FD80369002B12D4029B0133029370
:10298000029BAB4236D80369002B09D4029B01336A
:102990000293029BAB422DD80369B3F1FF3FDADC0F
:1029A0000023029310230361029B01330293029BD5
:1029B000AB421FD80369DB061DD5029B013302938E
:1029C000029BAB4216D80369DB0614D5029B013388
:1029D0000293029BAB420DD80369DB060BD5029B29
:1029E00001330293029BAB4204D80369DB06DBD4BC
:1029F00001E000BF01244FF0000B0029CAF810B01D
:102A0000CAF814B0CAF81CB000F0FE8000F51067D8
:102A10003B684FF0006505EA13134FF67F324E1EF8
:102A20003B60C7F810B0BA6073D08B1E032B06F062
:102A30000302009404D22024002A42D162E000BFA5
:102A400026F003034FF0000E4FF090484FF67F3C06
:102A50004FF0000900EB0904D4F82059043B08EAC0
:102A6000E575C4F82059C4F830E9C4F828C9D4F889
:102A7000405909F1800908EAE575C4F84059C4F8DD
:102A800050E9C4F848C9D4F8605908EAE575C4F8B3
:102A90006059C4F870E9C4F868C9D4F8805908EAE4
:102AA000E575C4F88059C4F890E9C4F888C9D1D153
:102AB00009F12004DDF84CE0DDF83C80DDF83090D1
:102AC00002B33D594FF0904C0CEAE5753B193D516E
:102AD00000244FF67F37012A1C619F6012D01D6AC7
:102AE000022A0CEAE5751D621C639F620AD01F6C06
:102AF0004FF0904505EAE7771F6400271F654FF602
:102B00007F379F64009C00294FF67F324FF00065AD
:102B10007AD0D0F8003B002E05EA1313C0F8003B32
:102B20004FF00003C0F8103BC0F8082B6CD00239FE
:102B3000032906F0030C05D22023BCF1000F3ED17F
:102B400062E000BF009426F0030300274FF0904698
:102B50004FF67F34002100BF4518D5F8202B043BE9
:102B600006EAE272C5F8202BC5F8307BC5F8284B81
:102B7000D5F8402B01F1800106EAE272C5F8402B3E
:102B8000C5F8507BC5F8484BD5F8602B06EAE272D1
:102B9000C5F8602BC5F8707BC5F8684BD5F8802B5D
:102BA00006EAE272C5F8802BC5F8907BC5F8884B21
:102BB000D2D1009C01F12003BCF1000F24D000F51C
:102BC0003062D6584FF0904707EAE676D118D650D3
:102BD00000264FF67F33BCF1010F0E618B6013D0DE
:102BE0000A6ABCF1020F07EAE2720A620E638B62A4
:102BF0000AD00A6C4FF0904303EAE2720A640022A2
:102C00000A654FF67F328A64DAF81010B9F1000FC6
:102C100021F48071CAF810106FF08041C0F818B02C
:102C2000416103D1816941F010018161816943F6FD
:102C30000002C8F23C021143B8F1000F816103D0D9
:102C4000816941F008018161BEF1010F05D18169FF
:102C500041F0804141F004018161204603B0BDE8AC
:102C6000F08F00000146806820F0010200208A6099
:102C700070470000B0B50446C06820F0C040E06076
:102C800091B1012926D1E068002540F00050E060B4
:102C90000120FEF7BBF86069C00705F1010014D1FF
:102CA000312D0546F4D310E0E068002540F0804067
:102CB000E06000BF0120FEF7A9F86069C00705F1D8
:102CC000010002D0312D0546F4D33238B0FA80F03D
:102CD0004009B0BD0120B0BDFEE7000000000000CB
:102CE0009AB0FEF7ADF9FFF7A9FBFFF799FAFFF7E6
:102CF00035FAFFF759FBFFF777FBFFF76BFA01ACEB
:102D0000601D5F21FDF7EDFB46F24850C6F66C40B2
:102D100001906F208DF80800204600F061F840F225
:102D20007005C2F200052846FDF718FF2846642109
:102D3000FDF796FE2846FDF7ADFD82B222A12046A2
:102D4000FDF72CFB204600F04BF840F2B804C2F22D
:102D500000042046FDF7D4FF20460021FEF72AF8A4
:102D6000204600210022FF23FEF710F8FEF754F959
:102D70009FED130B9FED188A9FED189A56EC105B90
:102D800038EE098A18EE100A01F036F941EC100B02
:102D900000F04EF851EC100B2A46334600F034FF99
:102DA00000F0D8FE074620460021FEF703F8204633
:102DB000002100223B46FDF7E9FFE1E700BF00BF2D
:102DC0000000000000409F406164635F7265733DD6
:102DD00025640D0A00000000000000005EA0A43978
:102DE00010B50446FDF75EFB82B240F2D850C2F245
:102DF000000021466423BDE81040FFF76DB803B41E
:102E000001984100009850EAC12018BF04204A0DE3
:102E100018BF40F0010040F2FF72B2EB515F08BFF3
:102E200040F00200012808BF052002B070470000F2
:102E300010B52F499FED2C1B2DED020B84B005988A
:102E400020F000408842DCBF00209DED040B32DD05
:102E50002849884209D1049840B94FF00100FDF794
:102E600091FB00F03DFC06B010BD05DB9DED040BB1
:102E700000F02AFC06B010BD68469DED040B00F082
:102E80003BF810F0030011D0012818D09DED021B73
:102E90009DED000B02281AD000F04AFA51EC100BFD
:102EA00000F04AFC06B041EC100B10BD9DED021B7A
:102EB0009DED000B012000F06FFB06B010BD9DEDF5
:102EC000021B9DED000B00F033FA06B010BD01208F
:102ED00000F062FB51EC100B00F02EFC06B041EC50
:102EE000100B10BD000000000000000000000000FA
:102EF000FB21E93F0000F07F2DE9F14F04462DED65
:102F0000020B2DED088B8AB09FEDE70B80ED020BD5
:102F1000139EE74826F0004585420ADC9DED120B22
:102F2000002084ED000B0AB0BDEC088B03B0BDE8B7
:102F3000F08FE0489FEDE0AB9FEDE1BBA84247DD9D
:102F4000E14F9FEDE39B9FEDE48B9DED120B53EC66
:102F50001A2B51EC100B002E1CDD00F05FFF41EC32
:102F6000100BBD4208D053EC1B2B51EC100B00F0A2
:102F700055FFC4E900010BE053EC192B51EC100B89
:102F800000F04CFF53EC182B00F048FFC4E900019F
:102F90000120C8E700F0DCFB41EC100BBD4208D07B
:102FA00053EC1B2B51EC100B00F0D2FBC4E90001D9
:102FB0000BE053EC192B51EC100B00F0C9FB53EC58
:102FC000182B00F0C5FBC4E900014FF0FF30AAE761
:102FD000C348A84279DB9DED120B51EC100B00F0B9
:102FE0009FFB41EC180B9FEDC00B53EC102B00F036
:102FF0000BFE9FEDBF1B53EC112B00F0A9FB00F063
:10300000A9FD074600F0D5FD41EC190B53EC1A2B36
:1030100000F0FAFD53EC182B00F0F4FE41EC180B15
:1030200053EC1B2B51EC190B00F0EEFDDFF8C8A29E
:1030300041EC100B4FEA15580125FA4453EC102BC4
:1030400051EC180B00F0EAFE032DC4E900013DD05D
:10305000C1F30A5005EB4511A8EB0000113981427C
:1030600034DA0AEB051BB0EE48AA9BED000BF0EE3C
:1030700068AA53EC102B51EC190B00F0C5FD41EC84
:103080001B0B51EC1A0B53EC1B2B00F0C7FE41EC51
:10309000180B51EC1A0B53EC182B00F0BFFE53EC3D
:1030A0001B2B00F0BBFE9BED020B41EC1A0B53EC0B
:1030B000102B51EC190B00F0A7FD53EC1A2B00F06C
:1030C000ADFE41EC100B6D1CB8E70EE0002EA8BF62
:1030D0003846BFF628AF94ED000B51EC100B00F012
:1030E0002BFBC4E9000178421DE7C6F3130040F44E
:1030F000801EC6F30A50A0F2F530471100F01F05FC
:10310000C5F12000DDF848B0089000200690079037
:103110000520EC467949002D07EB0002794408BFF1
:1031200051F8221009D051F8223001EB8201AB4056
:103130004A68089922FA01F11943A1FB0E26A1FB66
:103140000B131A449A4234BF0123002303EB0608F1
:103150000CEB8003D3E901A60E448E4234BF01215B
:10316000002192448A4411B1924502D903E092456C
:1031700001D2012100E00021C3E901A641444CF83D
:103180002010011EA0F10100C4DC029800F10050E3
:10319000850F0298DDE903678000DDF8148000F0F8
:1031A00008FD41EC1A0B304600F01AFD9FED541B50
:1031B00053EC112B00F028FD41EC1B0B384600F0BE
:1031C0000FFD9FED511B53EC112B00F01DFD41EC49
:1031D000180B404600F004FD9FED4D1B53EC112BE6
:1031E00000F012FD41EC190B51EC180B53EC192BAC
:1031F00000F0AEFA53EC1B2B00F0AAFA53EC1A2B9A
:1032000000F0A6FACDE90801002008909DED080B1A
:1032100053EC1A2B51EC100B00F000FE53EC1B2B5F
:1032200000F0FCFD53EC182B00F0F8FD53EC192BCB
:1032300000F0E8FD9FED381B53EC112B00F0E4FC8F
:103240009FED370B41EC180B53EC102B9DED080B49
:1032500051EC100B00F0D8FC53EC182B00F078FA6E
:103260009FED310B41EC180B53EC102B9DED080B2F
:1032700051EC100B00F0C8FC53EC182B00F068FA6E
:1032800041EC100B139810F0004F06D06D4251EC3A
:10329000100B00F051FA41EC100B284684ED000BA6
:1032A00041E60000000000000000000000000000F7
:1032B000FB21E93F7CD9024000004054FB21F93F4B
:1032C0003163621A61B4D03DFB21F93F0000000078
:1032D0000000601A61B4D03D7370032E8A19A33BBD
:1032E000FB2139410000000083C8C96D305FE43F15
:1032F000000000000000E03FEA100000381000006D
:10330000000000000000103E000000000000103C23
:10331000000000000000103A182D4454FB21F93D34
:103320003326A611460B113C00000054FB21F93D49
:1033300010B52DED040B2DED088B82B0B0EE419A47
:10334000F0EE619A0B9820F000449FED4BABB4F186
:10335000795F11DA9DED0A0B51EC100B00F0FAFBCE
:10336000002801BFB0EE4A0AF0EE6A0A02B0BDECD6
:10337000088B04BF04B010BD9DED0A0B53EC102B5D
:1033800051EC100B00F040FC41EC180B3C480621BE
:10339000B0EE480AF0EE680A784400F081F853EC89
:1033A000182B51EC100B00F02FFC9DED0A0B41EC9B
:1033B0001B0B53EC192B51EC100B00F025FC41ECCE
:1033C000190B53EC1B2B51EC180B00F01DFC53ECAC
:1033D000192B00F023FD9FED2C0B41EC190B53EC46
:1033E000102B51EC180B00F00FFC41EC100B28488F
:1033F000844210DA53EC192B51EC100B00F00EFD47
:1034000053EC1A2B00F0FEFC41EC100B02B0BDECAB
:10341000088B04B010BD1F48A042BCBF9FED1E1B0F
:103420008DED001B06DBA4F500100190002000903C
:103430009DED001B51EC100B53EC112B00F0EEFC3A
:103440009DED000B41EC180B53EC102B51EC1A0BBB
:1034500000F0E4FC41EC1A0B53EC192B51EC180B67
:1034600000F0DCFC53EC1A2B00F0CCFC41EC100B10
:10347000CCE7000000000000000000000000F03F6A
:103480005C0D000000000000000000000000E03FB4
:103490003333D33F0000E93F000000000000D23F7B
:1034A00070B504462DED028B4D1E00EBC500B0EE4D
:1034B000408AF0EE608A90ED000B35F0060017D0E0
:1034C00053EC182B51EC100B00F09EFB41EC100B51
:1034D0006D1E04EBC50090ED001B51EC100B53EC7E
:1034E000112B00F035F941EC100B35F00600E7D157
:1034F000022D36D0042D1CD0062D1CBFBDEC028B36
:1035000070BD53EC182B51EC100B00F07DFB94EDCB
:103510000A1B53EC112B00F01BF953EC182B00F095
:1035200073FB94ED081B53EC112B00F011F941ECE7
:10353000100B53EC182B51EC100B00F065FB94EDC5
:10354000061B53EC112B00F003F953EC182B00F081
:103550005BFB94ED040B53EC102B00F0F9F841ECFD
:10356000100B53EC182B51EC100B00F04DFB94EDAD
:10357000021B53EC112B00F0EBF853EC182B00F06E
:1035800043FB94ED001B53EC112B00F0E1F8BDEC74
:10359000028B41EC100B70BD31B504462DED040BD0
:1035A0002DED0A8BB0EE41BAF0EE61BA0B989DEDAD
:1035B0000A0B20F00040B0F1795F0DDA51EC100BEE
:1035C000FFF71DFC042808BF00F09AF89DED0A0BD8
:1035D000BDEC0A8B05B030BD53EC102B51EC100B39
:1035E00000F012FB41EC180B9DED0A0B53EC182B6D
:1035F00051EC100B00F008FB41EC190B2C48B0EE1D
:10360000480AF0EE680A05217844FFF749FF9FED6C
:103610002ACBB0EE40AAF0EE60AA9CB353EC1C2B70
:1036200051EC190B00F0F0FA41EC1C0B53EC1A2B87
:1036300051EC190B00F0E8FA9FED210B41EC190B4E
:1036400053EC102B51EC1B0B00F0DEFA53EC192B52
:1036500000F0E4FB53EC182B00F0D6FA53EC1B2BD4
:1036600000F0DCFB53EC1C2B00F0D8FB9DED0A1B9B
:1036700053EC112B00F0C6FBBDEC0A8B05B041ECFE
:10368000100B30BDFFE753EC1A2B51EC180B00F078
:10369000BBFA53EC1C2B00F05BF853EC192B00F039
:1036A000B3FA9DED0A1B53EC112B00F051F8E3E740
:1036B000EC0B000000000000495555555555C5BF9D
:1036C000000000000000E03F10B553EC102B51EC5F
:1036D000100B00F03DF841EC100B10BD0000000095
:1036E0009FED050B10B553EC102B51EC100B00F0B7
:1036F000D7F841EC100B10BD0000000000000000E6
:103700009FED050B10B553EC102B51EC100B00F096
:103710007BFA41EC100B10BD00000000000000100F
:1037200082B0CDE9000121F0004001909DED000B39
:1037300002B051EC100B704781F00041704780F0EF
:103740000040704721F00041704720F00040704772
:1037500010B591EA030F48BF83F0004300F1668380
:10376000841A71EB030C05D2121943EB0C03001BF6
:1037700061EB0C014FEA1154A4EB135CDFF81CE180
:103780001EEA430F18BF9EEA445F00F0748021EAEE
:10379000045123EA0E0343F48013DCF1200E32D3EC
:1037A00022FA0CFE10EB0E0023FA0CFE41EB0E0188
:1037B000CCF1200E03FA0EFE10EB0E00CCF1200E21
:1037C00051F10001B1F5801F32D201EB045112FA20
:1037D0000EF2BDE8104058BF7047401C38BF5FEA8A
:1037E000420218BF7047002814BF20F0010041F1C9
:1037F00000014FEA410313F5001F38BF7047A1F1E4
:10380000C04100F0F9BA012A43EB0302ACF1200CED
:10381000DCF11F0E32BF4FF0000E23FA0CF310EB59
:10382000030041EB0451B4EB115FD0D0A1EB045184
:1038300001F58011490801EB04515FEA30000ED315
:1038400050F1000038BF12FA0EFE08D1BDE810405A
:10385000C9E7401C38BF5FEA4202CAD1C3E7BDE8EE
:1038600010404FEA410313F5001F38BF7047A1F124
:10387000C04100F0C1BA9EEA445F08D011EA5E0F71
:10388000BDE8104004BF01F0004100207047BDE8D2
:10389000104070B500F062FA64FBBE3E0000E0FF2D
:1038A0002DE9C04130B4DFF8A4C23CEA111418BFBE
:1038B0003CEA131400F0ED801CEA111481EA0305C0
:1038C00044EAD57418BF1CEA131500F0C880A4EBB5
:1038D000050404F17F7404F500344FF0004545EA17
:1038E000C12145EAC32341EA505143EA52534FEA0A
:1038F000C0204FEAC222994208BF904200F09D804A
:103900004FEA13650FF24416765D4FEA134506FB46
:1039100005F7C7F1807706FB07F74FEAD737A7FB14
:1039200003687642A7FB06CEC8F5803838BFA8F1F9
:10393000010807FB08E6A6FB028C4FF0000EE6FB31
:1039400003CEDCF1000CCEF1004E38BFAEF1010E1B
:10395000A6FB0C584FF00007E6FB0E87A1FB08C63C
:10396000A0FB07CE16EB0E064FF0000545F1000553
:10397000E1FB076515F1E04E7EBFA4F580345FEAF8
:1039800046066D4116F1800745F100054FEA1727FD
:1039900047EA05674FEA15254FEA0666A6F1DE46B7
:1039A000B6F1805F20D9384605EBC47124F0010CD4
:1039B00001EB0C11BCF1FE6F02D8F0BCBDE8008138
:1039C00024425CBF01F5801E9EEAC47F02D4F0BC95
:1039D000BDE80081244200F13980A1F1C041F0BC72
:1039E000BDE8004100F008BA4FEAD02040EA41505B
:1039F0004FEAD1214FEAD22242EA43524FEAD3237F
:103A0000A7FB028607FB036605FB02661EEA0E0F94
:103A100058BFA6EB0056B6EB00564FEA520E4EEAE0
:103A2000C37E18EB0E0E56EB530EBCD518EB0208F6
:103A30005E417F1C55F10005B5E74FF480154FF04E
:103A400000074FF000064FF00008ACE701F1C0415D
:103A500001F000414FF00000F0BCBDE800810CEA2D
:103A6000131511EA0C1F00D00CE013EA0C1F00F034
:103A700026804FF0000081EA030101F00041F0BC14
:103A8000BDE80081F0BCBDE8004181EA030100F01F
:103A9000B3B9F0BCBDE8004170B500F05FF900BFFC
:103AA000097EFC3E00F007B84FF0000081EA0301F8
:103AB00001F00041704781EA030100F09DB9F0BCBC
:103AC000BDE8004122494FF000007047FFFDFBF9BF
:103AD000F7F5F4F2F0EEEDEBE9E8E6E4E3E1E0DE41
:103AE000DDDBDAD8D7D5D4D3D1D0CFCDCCCBCAC8B3
:103AF000C7C6C5C4C2C1C0BFBEBDBCBBBAB9B8B7DA
:103B0000B6B5B4B3B2B1B0AFAEADACABAAA9A8A8CC
:103B1000A7A6A5A4A3A3A2A1A09F9F9E9D9C9C9B9A
:103B20009A99999897979695959493939291919045
:103B30008F8F8E8E8D8C8C8B8B8A898988888787D6
:103B40008685858484838382828181800000FF074B
:103B50000000F87F4FEA41034FEA5353A3F5806317
:103B6000D3F11E03C8BFD3F1210C0CDD4FF000428E
:103B700042EAC12242EA505232FA03FC8CEAE17C6A
:103B8000ACEBE1707047102BC4BF0020704703F509
:103B9000787CBCF1FF3F04D06FF0004282EA210044
:103BA000704770B500F0DAF8499224800020704721
:103BB000F2E710F0004248BF4042B0FA80F310FA3A
:103BC00003F10AD0C3F11D0303F5806302EB035236
:103BD0004FEA415002EBD12170474FF0000070478F
:103BE000B0FA80F310FA03F10AD0C3F11D0303F514
:103BF00080634FEA03524FEA415002EBD1217047F4
:103C00004FF000007047000070B5DFF848C11CEAB3
:103C1000111E1EBF1CEA13159EEA0C0F95EA0C0F2D
:103C200000F06F8081EA03044EEAD47EAE4421EABC
:103C30004C1123EA4C1341F4801143F48013AEF18C
:103C40007F7EA1FB024CA0FB0365361955EB0C05EA
:103C5000A1FB034C4CF10003A0FB021C16EB0C066D
:103C6000654153F10003094218BF46F0010613F401
:103C7000007F0BD14FEA03314FEA053041EA15517D
:103C800040EA165034036FF003020AE04FEAC32102
:103C90004FEAC52041EA555140EA5650F4026FF010
:103CA000020202EB2E4201EB025585EACE710AD0E8
:103CB0005FEA440C18BF24F0004450F1000041F1C9
:103CC000000120EAD47040F2FE7C624500D270BD53
:103CD000A84214BF4FF080444FF04044002E08BF6C
:103CE0000024BEF1806FA8BFA1F1C041BDE87040C3
:103CF00080F2828001F1C04101F000414FF00000EC
:103D000070470CEA13159EEA0C0F18BF95EA0C0FCA
:103D100006D081EA030E4FF000000EF0004170BDA6
:103D200000F01CF88900013E00F007B800F009B867
:103D30004FEA430C5FEA5C5C08D081EA030100F0C3
:103D40005BB84FEA410C5FEA5C5CF6D102494FF088
:103D5000000070470000FF070000F87F0EF1020E20
:103D60002EF0030E5EF8046B364205D4012A43EBB5
:103D7000030515F5001F12D8012841EB010C1CF5B5
:103D8000001F0CD80ED14FEAD17C0CEB4C0C0CF17F
:103D9000020C15F5001F08BF4CEBD37C04E04FF07C
:103DA000080C01E04FEAD37C0CEB4C0526FA05F633
:103DB00006F00706B6F1040C06D20EEB860CBDE841
:103DC00070404CF0010C6047DFE80CF0090B020278
:103DD0004FF00041A1F500214FF0000070BD1946E1
:103DE0001046012851EB010418BFD4F5001484BF1C
:103DF000002001F0004170BD0808A0F500114FEA55
:103E00003101704710B591EA030F81F000413FF591
:103E1000A7AC83F0004300F009B8000010B591EAA8
:103E2000030F48BF83F000433FF59AAC841A71EB4F
:103E3000030C07D28CF0004C121943EB0C03001B4F
:103E400061EB0C014FEA1154A4EB135CDFF8A4E121
:103E50001EEA430F18BF9EEA445F00F0B48021EAD7
:103E6000045123EA6E035242C3EB6E0338BF5B1E5C
:103E7000DCF1200E25D322FA0CFE10EB0E0043FAE3
:103E80000CFE41EB0E01CCF1200E03FA0EFE10EBFE
:103E90000E00CCF1200E51F1000129D401EB0451A8
:103EA00012FA0EF2BDE8104058BF7047401C1CBF0C
:103EB000B2F1004F704700280CBF491C20F00100F0
:103EC000704712EB020E43EB030218BF4FF0010ED6
:103ED0004EEA4202ACF1200CDCF11E0E56D943FA38
:103EE0000CFE10EB0E00CCF11E0E51F1FF31D5D5BA
:103EF0000EF1010E12FA0EFE404141EB010101EB01
:103F0000445C5FEA5C5C10D901EB045110EBDE709D
:103F100038BFBEF1004FBDE8104018BF7047002801
:103F20000CBF491C20F00100704734D24FEAD42C5A
:103F300024F4006411F500111BD0B1FA81F20B3AA0
:103F4000A41AA41ED2F12003914030FA03F31943BE
:103F5000904001EBCC7101EB0451002CBDE8104006
:103F6000A8BF704701F1C04101F000414FF00000CF
:103F70007047B0FA80F310FA03F102D1BDE81040A7
:103F80007047E41A173C4805C90AE2E701EB0451FF
:103F9000BDE81040704749104FEA300001EB045172
:103FA000BDE8104002E04FF0000170474A0008BF32
:103FB0000042F8D0B2F5001F28BF704701F0004161
:103FC0004FF0000070479EEA445F07D011EA5E0F91
:103FD000BDE8104004BF002100207047BDE810403C
:103FE00070B5FFF7BBFE00BF40DFF63E104683F022
:103FF000004170470000E0FF43004FEAD30C4FEA56
:104000003C0C43401FBF40070CF1605113F0FE4FC2
:1040100070471CF0006F03D10CF000410020704786
:104020000CF0004343EA507040EACC0010B500F0B9
:104030000EF800BF000000924FEA0001FFF7DCBE5F
:104040004FF00041A1F500214FF0000070470EF144
:10405000020E2EF0030E5EF8044B244204D44FEA05
:104060004102B2F17F4F11D84FEA4003B3F17F4FC5
:104070000CD80ED14FEAD07C0CEB4C0C0CF1020C9E
:10408000B2F17F4F08BF4CEBD17C04E04FF0080C3D
:1040900001E04FEAD17C0CEB4C0324FA03F404F06A
:1040A0000704B4F1040C06D20EEB840CBDE81040FA
:1040B0004CF0010C6047DFE80CF0070802024FF0FB
:1040C0000040A0F5800010BD0846420018BFD2F1A4
:1040D000807288BF00F0004010BDF1EE100A4FF66C
:1040E000FF71C0F2C03120EA010040F04070E1EE03
:1040F000100A7047000000004C5555555555A53F16
:104100007751C1166CC156BF9015CB19A001FA3E6C
:10411000AD529C804F7E92BEC4B1B4BD9EEE213E96
:10412000D43888BEE9FAA8BD00004054FB21F93F0D
:104130003163621A61B4D03D0000601A61B4D03DB1
:104140007370032E8A19A33B0000002E8A19A33B2B
:10415000C14920259A837B3900000000000000003F
:104160006E83F9A22915444ED15727FCC0DD34F5E2
:10417000999562DB4190433CAB6351FE61C5BBDE68
:104180003A6E24B7E0D24D42EA2E49061C92D1097C
:104190001CEB1DFE3EA729B1F53582E88444BB2EF9
:1041A00026709CE9417E5FB439D69139F439538346
:1041B0008B5F849C3B28F9BDFF97F81F0F9805DEA5
:1041C0008B112FEF1F6D0A5ACF7E366DB709CB27A3
:1041D000663F464F2DEA5F9EC7BA27757BF1E5EB38
:1041E000F739073DEA92528AB15FFB6B085D8D1F7C
:1041F0004630035600000000A6F810111111813F4F
:10420000D561C119A0012ABF7DFEB157E31DC73E8C
:10421000EB9C2B8AE6E55ABE7CD5CF5A3AD9E53DD0
:104220000000000000000000010203040607080966
:1042300000000000010203045842000800000020B2
:104240001000000000020008684200081000002072
:10425000100C00001C02000801000000100000000B
:084260000024F400000000003E
:04000005080001C529
:00000001FF
